:1000000058C1000087C1000085C1000083C1000005
:1000100081C100007FC100007DC100007BC10000E4
:1000200079C100000C94C6160C94C6160C94C61622
:1000300071C100006FC100006DC100006BC1000004
:1000400069C10000EEC7000065C1000063C1000087
:1000500061C100005FC100005DC100000C941A1670
:1000600059C100000C9407150C94DE1453C1000014
:1000700051C100004FC100004DC100004BC1000044
:10008000A3C7000047C1000045C1000043C10000F4
:100090000C94B5140C948C143DC100000C942610E3
:1000A00039C1000037C1000062C7000033C1000041
:1000B00031C100002FC100002DC100002BC700007E
:1000C00029C1000027C1000025C100000C94631461
:1000D0000C943A141FC100000C9411140C94E813F2
:1000E00019C100000D061C061C061C061C061C0679
:1000F0001C061C061C06FB051C0660051C06BA0532
:100100001C063F05E9041C061C061C061C061C06F2
:10011000C6031C06A1041C062B05310936093B0940
:1001200045094F09C80959096109690973097D0918
:1001300087099609A009C809AA09B409BE09FA0BDA
:10014000210CE80B350C510C8F0C7A0C8F0C8F0C9A
:100150008F0C860C0A0C630D660D690D800D800DE9
:10016000800D800D6C0D710D760D7B0DE112E4128A
:10017000D312D712DD121B13E812EC12F212F61290
:10018000FA120013041308131B130E131213161381
:1001900000002100240027002A002D003000330039
:1001A00001010000040107010A01000022002500EE
:1001B00028002B002E003100340002010000050150
:1001C00008010B01000020002300260029002C005C
:1001D0002F0032000001000003010601090105059E
:1001E0000505070508080808020202020A0A0808AD
:1001F00004040404010101010101010103030303DB
:1002000003030303040707070C0C0C0C0C0C0C0C69
:100210000202020206060606060606060B0B0B0B7A
:100220000B0B0B0B0102102020080810204010209F
:1002300040800201020108040201010204081020AA
:1002400040808040201008040201800402018040A8
:100250002010080402010804020101020408102011
:100260004080010204081020408000000A0B0209AF
:100270000C0D0E0807030401000000000000000040
:10028000000000000000000000000000000000006E
:10029000000000000000121110000000000000002B
:1002A000000000000000000000000000000000004E
:1002B0004C1F11241FBECFEFD1E2DEBFCDBF00E047
:1002C0000CBF2AE0AAE6B3E001C01D92A837B2072E
:1002D000E1F713E0A0E0B2E0ECEFF4E400E00BBFE4
:1002E00002C007900D92AA36B107D9F711E0C9E50F
:1002F000D1E000E006C021970109802FFE010E9495
:10030000C320C835D10780E00807A9F70E94251946
:100310000C947C2275CE80919D0490E020919E04E7
:10032000821B91090895CF92DF92EF92FF920F9373
:100330001F93CF93DF937C01262F972F8A01809103
:100340005405882391F0C62FD72F6E01C40ED51EF9
:10035000CC15DD0571F06991D701ED91FC9101900B
:10036000F081E02DC7011995F3CF642F822F0E94F1
:100370005711C801DF91CF911F910F91FF90EF901E
:10038000DF90CF900895CF93DF931F92CDB7DEB764
:100390006983209154052223D1F0209177052032E2
:1003A00040F021E030E0FC013383228380E090E0E4
:1003B00015C080915505E82FF0E0EA5AFA4F99816F
:1003C00090838F5F809355058093770505C061E02A
:1003D000CE0101960E94571181E090E00F90DF91CD
:1003E000CF910895CF92DF92EF92FF920F931F93D8
:1003F000CF93DF936C018B017A01EC01C75FDB4F78
:10040000888187FF04C0FB011182108224C08CE028
:100410008C9D90018D9D300D11248881A901480F7C
:10042000511D87FD5A958091B80990E048175907EA
:1004300094F48881A901480F511D87FD5A95CA017E
:10044000FA01EE0FFF1F8E0F9F1FFC01E85DF64FB4
:10045000808186FD19C088818F5F88838CE08C9DA8
:1004600090018D9D300D11248881A901480F511DE7
:1004700087FD5A958091B80990E048175907BCF458
:1004800088818C3044F113C08881280F311D87FD8D
:100490003A95F901EE0FFF1F2E0F3F1FF901E85D9E
:1004A000F64F808160E08F730E945815D4CFF80119
:1004B00080819181049680349C4918F480E49CE901
:1004C00004C0F801808191810496F70191838083B3
:1004D0008FEF888345C0F801408151818881B9013F
:1004E000680F711D87FD7A95CB01FB01EE0FFF1F91
:1004F0008E0F9F1FFC01E85DF64F81819281840F72
:10050000951FF701918380838881A901480F511DB0
:1005100087FD5A95CA01FA01EE0FFF1F8E0F9F1F2C
:10052000FC01E85DF64F808186FF1AC08881280FA4
:10053000311D87FD3A95F901EE0FFF1F2E0F3F1F6A
:10054000F901E85DF64F808161E08F73DF91CF9113
:100550001F910F91FF90EF90DF90CF900C94581562
:10056000DF91CF911F910F91FF90EF90DF90CF908F
:100570000895AF92BF92CF92DF92EF92FF920F93C6
:100580001F93CF93DF931F92CDB7DEB7893008F06A
:1005900092C0982F990F990F990F985F973408F090
:1005A00096E4D62EB82EBB0CBB0CBB0CFB2CA12C9E
:1005B000CC24C394F91610F58EEF8F0D8434D8F443
:1005C0000F2D10E0F801E95CF74F2081223098F4FC
:1005D000EE24E3948C2D8D2109F4E12C000F111FE2
:1005E000213009F055C0AC28F801E358F74F2E2D03
:1005F00030E031832083CC0CF394DCCFA0FE05C027
:100600006D2D61708B2D0E945815A1FE06C06D2DB9
:10061000627081E08B0D0E945815A2FE06C06D2D00
:10062000647082E08B0D0E945815A3FE06C06D2DEC
:10063000687083E08B0D0E945815A4FE06C06D2DD6
:10064000607184E08B0D0E945815A5FE06C06D2DCB
:10065000607285E08B0D0E945815A6FE06C06D2DB8
:10066000607486E08B0D0E945815A7FE24C06D2D86
:10067000607887E08B0D0F90DF91CF911F910F91E4
:10068000FF90EF90DF90CF90BF90AF900C945815F3
:10069000EE2009F4A9CFF801E358F74F208131810A
:1006A0002130310509F4A0CF62E08F2D99830E949B
:1006B0008715998199CF0F90DF91CF911F910F915D
:1006C000FF90EF90DF90CF90BF90AF9008950F9381
:1006D0001F93CF93DF9381E08093080489E49AE02D
:1006E0000E94830D80910704882329F0109207044B
:1006F0008FEF80930002CAE6D3E0AEEFB3E0E3E70A
:10070000F3E089E08E0F119219921D928E13FBCFA8
:1007100008EB13E0C0E0DFEF8AEC8C0F803118F4B7
:1007200062E070E006C08EEF8C0F843420F461E04C
:1007300070E08C2FB9D7F801D1938F01CF5FC63409
:1007400059F71092AB031092AA031092B7031092BC
:10075000B60310920804DF91CF911F910F91089575
:10076000EF92FF920F931F93CF93DF9390E0FC01E2
:10077000E056F109EB31F10508F05EC2EA01162FEF
:100780008827EE58FF4F8F4F0C94C3202981922F5A
:10079000987125FF03C08CEB92E058C0888131E04E
:1007A00026FB222720F92327983061F160F491116C
:1007B00043C23093540580937605109255051092EC
:1007C000770502E007C0903109F43AC0983109F486
:1007D0006BC032C2011770F4FE01E00FF11D818180
:1007E000608120E8829F601911248CE199E0CBDDC3
:1007F0000E5FF0CF81E00E94EF1783E191E0019757
:10080000F1F71AC24A816B81163069F430E8639FB0
:10081000B0011124640F711D9D814C81E0E89E9F01
:100820004019112406C0F0E86F9F401911246FEFA2
:100830007FEFDF91CF911F910F91FF90EF900AC64C
:10084000E0910002E73054F08CED92E0DF91CF911F
:100850001F910F91FF90EF900C94E4179A814B81B8
:10086000663069F430E8439FA0011124490F511DFF
:100870003D819C8160E8369F9019112406C0F0E804
:100880004F9F901911244FEF5FEFEF5FE09300024D
:1008900035E0E302F0011124EE57FC4F80835283D0
:1008A000418393832483C8C120910002121614F05F
:1008B0008FEF44C090E0622F022E000C770B35E0E2
:1008C000492F50E06417750774F0349FF001359F8D
:1008D000F00D1124EE57FC4F4081481302C085E013
:1008E00026C09F5FEDCF90E0FACF9830F8F4FA0180
:1008F00031968E9FD0018F9FB00D1124AE57BC4F03
:100900003C91849FF001859FF00D1124EE57FC4F20
:10091000308311964D915C911297528341831396C7
:100920003C911397338314963C9134839F5F492FF6
:1009300050E064177507CCF68FEF820F80930002AA
:100940007BC12881898160E8869FC0011124820FC4
:10095000911D009721F09093B5038093B40380918B
:100960000704811169C1C0E08CEE8C0F823020F445
:1009700066E070E08C2F98D6CF5FC634A9F781E08F
:100980008093070410929E0410929D0410925505C6
:1009900010927705109253058093520510922D0501
:1009A00061E084E10E94581561E085E10E945815DC
:1009B0008091B9008E7F8093B9008091B9008D7FBE
:1009C0008093B90088E48093B80085E48093BC00EC
:1009D00033C1653008F430C11881F9800A81EB8099
:1009E000CC818EEF810F843408F026C1E12FF0E036
:1009F000E854FC4F20812033B0F430E0F901EE0FD1
:100A0000FF1F2E0F3F1FF901E754F64F208130E002
:100A1000F901EE0FFF1F2E0F3F1FF901E85DF64FA2
:100A2000808186FD06C180E8C89FA00111244E0D7B
:100A3000511D90E8099FB00111246F0D711D812F88
:100A4000F6D564E070E0812FDF91CF911F910F9177
:100A5000FF90EF9029C6623008F4EEC028818981AA
:100A6000E0E88E9FC0011124820F911D009711F4C0
:100A700081E090E09093020280930102DDC0623039
:100A800008F4DAC0698170E0123091F08A81F0E8F0
:100A90008F9FC0011124682B792B133049F08B8173
:100AA00090E090E4899F902D88271124682B792B62
:100AB0008881DF91CF911F910F91FF90EF90F3C24A
:100AC00080EF0E944C188CE60E944C18CEEFD2E0CA
:100AD000DC0FC43490F480E00E944C1881E00E9446
:100AE0004C188BE00E944C1881E00E944C1881E069
:100AF0000E944C1881E00E944C188CEC8C0F8031C5
:100B000038F482E00E944C188AE00E944C1802C01F
:100B1000CC3020F086ED8C0F833030F483E00E94DF
:100B20004C1888E00E944C18C43430F484E00E94D1
:100B30004C188EE00E944C188EEE8C0F823030F4F0
:100B400086E00E944C1881E00E944C186D2F89E4C9
:100B50009AE088D78FE70E944C18CF5FC43409F021
:100B6000B6CF87EFDF91CF911F910F91FF90EF905C
:100B70000C944C18662309F45FC0C88180EF0E9472
:100B80004C188EE60E944C188C2F0E944C18C634CC
:100B900040F7D0E0FE01E95CF74F80810E944C18DD
:100BA000CC0FDD1F8E010358174FF80180818F771E
:100BB0000E944C18F801808191819C012078232BA0
:100BC00039F0880F892F881F990B8F770E944C1856
:100BD000C358D74F888199819C012227307C232BD1
:100BE00009F4BFCF990F880B990F982F881F8F7723
:100BF0000E944C18B6CF80EF0E944C188AE60E94E3
:100C00004C18CAECC03110F48C2F01C08FE70E9441
:100C10004C18CF5FC031B1F7A4CF9A01462F60E6E0
:100C200089E49AE0DF91CF911F910F91FF90EF90AF
:100C300087C7812FC9D4F7CEDF91CF911F910F9134
:100C4000FF90EF9008950F931F93CF93DF93082F9A
:100C5000893008F077C090E0FC01ED58FC4F6083CC
:100C6000672B09F46FC0FC01E659FC4F1081D02FAF
:100C7000DD0FDD0FDD0F8EEF8D0F843408F052C0D5
:100C800010FF50C08D2F0E943015892B09F44AC0E7
:100C9000C1E08FEF8D0F843448F411FF07C081E06D
:100CA0008D0F0E943015892B09F03EC012FF06C03F
:100CB00082E08D0F0E943015892BC1F513FF06C00D
:100CC00083E08D0F0E943015892B91F514FF06C02B
:100CD00084E08D0F0E943015892B61F515FF06C049
:100CE00085E08D0F0E943015892B31F5D03491F0BD
:100CF00016FF06C086E08D0F0E943015892BF1F497
:100D0000DF3340F417FF06C087E08D0F0E943015D7
:100D1000892BB1F441E06C2F802FDF91CF911F918F
:100D20000F9153C3C0E0B5CFC260C0CFC460C6CF7F
:100D3000C860CCCFC061D2CFC062D8CFC064E0CF92
:100D4000C068E8CFDF91CF911F910F910895CF93A5
:100D5000803180F54091AA035091AB0321E030E04F
:100D6000672B81F4B90102C0660F771F8A95E2F7FD
:100D7000CB0180959095842395239093AB0380932A
:100D8000AA0318C0082E02C0220F331F0A94E2F7EC
:100D9000242B352B3093AB032093AA0390910804A6
:100DA000911108C0C82F0E94C315BC018C2FCF9190
:100DB0000C949917CF910895DF92EF92FF920F93C1
:100DC0001F93CF93DF93EC01D62E7A01890188819E
:100DD000803308F06AC061E08D2D0E9487158881FC
:100DE000E82FF0E09F01220F331FE20FF31FE85DB1
:100DF000F64F9D2D9F732081207CD22ED92AD08240
:100E000060E272E0AB014E195F0957FF02C04D5F0F
:100E10005F4F5595479555954795498340E659E06D
:100E20009A01201B310B37FF02C02D5F3F4F3595D4
:100E30002795359527952A836CE00E94A4209CE095
:100E4000899FB001112440E050E09A01260F371F1E
:100E5000F901EE0FFF1F2E0F3F1FF901E85DF64F5E
:100E6000908196FD16C04F5F5F4F4C30510569F77A
:100E7000813021F51092800082E0809381001092F1
:100E8000850010928400B19A80916F0082608093F7
:100E90006F00E881F0E0CF01880F991FE80FF91F7C
:100EA000E85DF64F8081806480838881DF91CF91F7
:100EB0001F910F91FF90EF90DF900895823061F4C1
:100EC00010929000809391001092950010929400DF
:100ED00088BB80937100DDCF833069F41092A0004D
:100EE00082E08093A1001092A5001092A40089BB1B
:100EF00080937200CECF8111CCCF1092200182E07E
:100F00008093210110922501109224018ABB8093C5
:100F10007300BFCF1F920F920FB60F9211240BB622
:100F20000F922F933F934F935F936F937F938F9382
:100F30009F93AF93BF93EF93FF9348E251E064E236
:100F400071E080E090E04EDAFF91EF91BF91AF91B8
:100F50009F918F917F916F915F914F913F912F91D1
:100F60000F900BBE0F900FBE0F901F9018951F9201
:100F70000F920FB60F9211240BB60F922F933F933F
:100F80004F935F936F937F938F939F93AF93BF9391
:100F9000EF93FF9348EA50E064EA70E083E090E06A
:100FA00021DAFF91EF91BF91AF919F918F917F9146
:100FB0006F915F914F913F912F910F900BBE0F90CA
:100FC0000FBE0F901F9018951F920F920FB60F92A1
:100FD00011240BB60F922F933F934F935F936F9310
:100FE0007F938F939F93AF93BF93EF93FF9348E9C2
:100FF00050E064E970E082E090E0F4D9FF91EF9175
:10100000BF91AF919F918F917F916F915F914F9120
:101010003F912F910F900BBE0F900FBE0F901F901E
:1010200018951F920F920FB60F9211240BB60F92C4
:101030002F933F934F935F936F937F938F939F93E0
:10104000AF93BF93EF93FF9348E850E064E870E0FC
:1010500081E090E0C7D9FF91EF91BF91AF919F914F
:101060008F917F916F915F914F913F912F910F9051
:101070000BBE0F900FBE0F901F9018959EEF980F0C
:10108000943480F4E82FF0E0DF01A95CB74F9C9125
:10109000913041F4EE0FFF1FE358F74F60837183E7
:1010A0000C94581508956F927F928F929F92AF92F1
:1010B000BF92CF92DF92EF92FF920F931F93CF9345
:1010C000DF931F92CDB7DEB7982F3B01863408F02F
:1010D0006CC1082F10E0F801E95CF74F8081833084
:1010E00009F490C0843009F060C19250943408F043
:1010F00055C1F801E854FC4FE080F12C6701CC0C9D
:10110000DD1C603282E078070CF042C077FD05C03C
:10111000653B710524F4DB0104C0A0E001C0A4EB31
:10112000B0E0F601EE0DFF1DE754F64F818128E88F
:1011300030E04901881A910887FD9394880C991C26
:10114000880C991C092C000CAA08BB08828128E590
:1011500032E0281B310987FD3395220F331F220F00
:10116000331FA901330F660B770B9A01AB012819C6
:1011700039094A095B090E94452224EB30E040E02E
:1011800050E00E941F22820E931EA41EB51E01C0B5
:101190004B01F601EE0DFF1DE754F64F2081203381
:1011A00008F0FCC0318188E890E0831B910937FD8D
:1011B0009395880F991F880F991F8816990684F0B8
:1011C000828148E552E0481B510987FD5395440F41
:1011D000551F440F551FC401481559050CF4CA0189
:1011E0000297880F991F4FB7F89430E0F901EE0F7E
:1011F000FF1F2E0F3F1FF901E85DF64F9283818399
:101200004FBFCCC08EEF890F8C3028F084ED890F52
:10121000833008F0C3C061E0892F99830E9487154D
:1012200099816114710411F460E005C08FEF6816B4
:10123000710429F461E0892F0E945815AFC0F801AC
:10124000E659FD4FE4914E2F50E0FA013197E2311B
:10125000F10508F09DC08827E357FF4F8F4F0C948E
:10126000C32084B5806884BD67BC98C084B58062A3
:1012700084BD68BC93C080918000806880938000AA
:10128000709289006092880089C08091800080629D
:101290008093800070928B0060928A007FC0809162
:1012A000800088608093800070928D0060928C0036
:1012B00075C08091B00080688093B0006092B300E8
:1012C0006DC08091B00080628093B0006092B400E5
:1012D00065C0809190008068809390007092990022
:1012E000609298005BC08091900080628093900033
:1012F00070929B0060929A0051C08091900088602B
:101300008093900070929D0060929C0047C08091F5
:10131000A00080688093A0008091A0008F7B8093C4
:10132000A0007092A9006092A80038C08091A0002F
:1013300080628093A0007092AB006092AA002EC0E1
:101340008091A00088608093A0007092AD006092B0
:10135000AC0024C0809120018068809320017092AD
:101360002901609228011AC0809120018062809337
:10137000200170922B0160922A0110C080912001FF
:1013800088608093200170922D0160922C0106C02C
:1013900080E8681671040CF04DCF46CF000F111F86
:1013A000F801E358F74F718260820F90DF91CF917F
:1013B0001F910F91FF90EF90DF90CF90BF90AF9073
:1013C0009F908F907F906F9008950F931F93CF936E
:1013D000082F10E0F801E659FC4F9081C62FC92371
:1013E00002501C4F411104C0D8019C919C1771F10F
:1013F000682F8091EC079091ED07DC01ED91FC9155
:101400006F7060690190F081E02D19958091EC0773
:101410009091ED07DC01ED91FC916C2F6F770190BD
:10142000F081E02D19958091EC079091ED07DC019A
:10143000ED91FC916C2F70E0660F672F661F770BA4
:101440000190F081E02D1995F801C083CF911F9193
:101450000F910895CF92DF92EF92FF920F931F9317
:10146000CF93DF931F92CDB7DEB7082F6B01142FF8
:101470006F3F8FEF780709F181E080935405009367
:10148000760510925505109277058CE199E0298335
:101490000E94C3012981822F0E94EF17E091B403BB
:1014A000F091B503E230F10550F0EE0FFF1FEE0FA3
:1014B000FF1F35973197F1F702C0C12CD12C8091D5
:1014C00053058111FCCF212F113208F020E281E079
:1014D00080935305809352059FEF9093510510928E
:1014E0005005920F90934F0580932E0580912E0505
:1014F000902F990F892B80932E0580912D05813097
:1015000061F410922D0580912E058093BB0080918F
:10151000BC0083FDF8CF85EC01C085EE8093BC0054
:10152000809153058130E1F380915005821710F4CA
:1015300020915005AFE2B5E04DE754E0FA018E2F5F
:10154000841B821718F48D918193F9CF10929E0419
:1015500020939D04E12EF12C30E0E216F3061CF4FA
:101560008DEE92E005C02E153F0524F48AE093E04D
:101570000E94E41700933D04C0923E04C12CD12C7C
:10158000CE14DF0434F490919D0480919E0498134E
:1015900010C062E0610F4DE354E087E70F90DF91E8
:1015A000CF911F910F91FF90EF90DF90CF900C940F
:1015B000AF178CE199E019D2F601E35CFB4F82830F
:1015C0008FEFC81AD80ADCCFA82FB0E0A854BC4FC0
:1015D0009C91292F30E0F901EE0FFF1F2E0F3F1FC6
:1015E000F901E754F64FE081F0E09F01220F331F2D
:1015F000E20FF31FE85DF64F80818F7B808380913F
:10160000B603981306C0992379F091509093B603CE
:101610000BC0882349F0E091B703EF5FE093B70375
:10162000F0E0E45FFB4F90838FEF8C930895DB0134
:101630009091B6039033A0F53091B703682F70E016
:10164000332369F0E32FF0E0E45FFB4F8081FB017F
:10165000E854FC4F808331503093B70307C0FB013F
:10166000E854FC4F90839F5F9093B603FB01E854CE
:10167000FC4F808190E09C01220F331F820F931F4B
:101680001A161B0634F4141615061CF49A01AD0143
:1016900004C020E639E040E252E08754964F8CCBFC
:1016A00086E293E00C94E4178F929F92AF92BF92E0
:1016B000CF92DF92EF92FF920F931F93CF93DF931E
:1016C0001F92CDB7DEB7E82EF12C97012451384F89
:1016D0004901F901E55BFF4F90819F3709F44CC147
:1016E000963041F490910704992321F066307105FA
:1016F00009F026C16B01182F0EEF080F0434F8F41F
:1017000064307105E1F0F701E854FC4F80818033CB
:10171000B0F490E0FC01EE0FFF1F8E0F9F1FFC0145
:10172000E754F64F808190E0FC01EE0FFF1F8E0F13
:101730009F1FFC01E85DF64F808186FD07C19AEC92
:10174000910F903160F461E070E082E0C816D1043E
:1017500011F060E070E0892F9983F9DA99810434FF
:1017600018F5A12FA695A695A695812F8770B0E0B4
:10177000A659BC4FC114D10421F02BE0C216D104EC
:1017800049F421E030E001C0220F8A95EAF78C91FC
:10179000282B09C021E030E001C0220F8A95EAF72A
:1017A00020958C9128232C935701AA0CBB1CF50182
:1017B000E358F74F118210823CE0C316D10408F0C1
:1017C000AEC0F6018827E156FF4F8F4F0C94C3201F
:1017D000903108F0D1C0043420F460E0812F0E94E1
:1017E0008715F401E55BFF4F80818F3709F4C4C092
:1017F00082E093C0043408F0BFC060E0812F0E94F3
:101800008715F401E55BFF4F80818F3709F4B4C081
:101810001082B2C0043408F0AFC062E0812F0E9491
:101820008715F401E55BFF4F80818F3711F08BE066
:101830008083F501E358F74F81E090E09183808346
:101840009BC0043408F098C060E0812F0E945815B6
:1018500061E0812F0E948715F401E55BFF4F8081D5
:101860008F3709F489C081E058C00C3028F084ED2E
:10187000810F833008F080C061E0812F0E948715BE
:1018800061E0812F0E94871560E0812F0E9458152A
:10189000F401E55BFF4F80818F3709F46DC083E071
:1018A0003CC0043408F068C0F401E55BFF4F808160
:1018B0008F3711F084E08083F701E854FC4F80817A
:1018C0008F3F09F446C090E0FC01EE0FFF1F8E0F22
:1018D0009F1FFC01E754F64F808190E0FC01EE0F62
:1018E000FF1F8E0F9F1FFC01E85DF64F808186FD74
:1018F00043C02FC01451123008F03EC0F401E55B24
:10190000FF4F80818F37C1F186E007C0F401E55BAE
:10191000FF4F80818F3781F18AE080832DC08AE379
:1019200093E00F90DF91CF911F910F91FF90EF9077
:10193000DF90CF90BF90AF909F908F900C94E41762
:10194000109207049FEF90930002D4CE812F3CDECB
:10195000F6CE4FEF5FEF6FEF7FEF812F0F90DF91AC
:10196000CF911F910F91FF90EF90DF90CF90BF909C
:10197000AF909F908F905BCE0F90DF91CF911F9192
:101980000F91FF90EF90DF90CF90BF90AF909F901E
:101990008F9008954A30510551F4E62FF0E0E95C4C
:1019A000F74F80818F3729F08AE0808302C080E082
:1019B000089581E0089585ED8093BC008091BC007E
:1019C00084FDFCCF1092530508950895E0919E0484
:1019D00080919D04E81730F4F0E0E358FB4F8081DC
:1019E00090E008958FEF9FEF089590919E0480916D
:1019F0009D04981750F4E92FF0E0E358FB4F208145
:101A000030E09F5F90939E0402C02FEF3FEFC9012B
:101A10000895CF93DF93EC018A8D9B8D892BF1F094
:101A200080918003909181038C179D07B9F00097F6
:101A300011F00E9444178E8D8E7F8E8F1092E604D7
:101A40001092E704D0938103C0938003EB89FC8953
:101A500090818D89892B808381E001C080E0DF91B6
:101A6000CF910895CF9382EF860F8630E0F4C62F92
:101A70008AE00E944C18C33151F0C23151F0C1319B
:101A800051F0C03151F0CF3051F087E009C082E011
:101A900007C083E005C084E003C085E001C086E0A4
:101AA000CF910C944C18CF910895DC01462F50E053
:101AB000FA013197EB30F10518F58827E555FF4F0E
:101AC0008F4F0C94C32082EB96E0089585E196E059
:101AD000089588E795E0089593968D919C91949749
:101AE000089595968D919C919697089597968D91CE
:101AF0009C919897089599968D919C919A970895A5
:101B000080E090E008951F93CF93DF93EC0118E0FD
:101B1000612FCE01CADF009711F00E9474211F5F70
:101B20001C30B1F78FEF8AA3FE013A96A29611926C
:101B30001192EC17FD07D9F7DF91CF911F9108950E
:101B40008F929F92AF92BF92CF92DF92EF92FF92CD
:101B50000F931F93CF93DF93EC01042F790160362D
:101B600009F040C2D9018C91182F1F70807F8033FB
:101B700009F49FC130F4803171F0803209F477C1EB
:101B800033C2803609F418C2803709F422C2803586
:101B900009F02AC2E6C1F9018280912CA12CB12C56
:101BA00067E0880C991CAA1CBB1C6A95D1F783813D
:101BB00090E0A0E0B0E07EE0880F991FAA1FBB1F55
:101BC0007A95D1F7882A992AAA2ABB2A8181882A5C
:101BD0001830A0F5612FCE0168DFEC01892B09F4E4
:101BE00003C21150133020F5212F30E0F901E05FDE
:101BF000FD4F8081F901E35FFD4FE0818823C1F053
:101C0000EE23B1F0282F30E02451384FD901A55BE5
:101C1000BF4F9C919F3711F09AE09C93F0E0E95CF4
:101C2000F74F90819F3711F09AE0908360E06FD773
:101C3000B501A401CE010E94BE18D6C1453068F09E
:101C40000481F580193001F118F4183059F04DC0B5
:101C50001A3059F11B30D1F148C08BE493E00E9457
:101C6000E417C0C18BA19CA1892B09F03EC08FE174
:101C700090E00E94DF206C0120E04F2D602F0E9439
:101C80006416DCA2CBA231C08DA19EA1892B69F57F
:101C90008FE190E00E94DF206C0120E04F2D602F4B
:101CA0000E946416DEA2CDA220C08FA198A5892B28
:101CB000E1F48FE190E00E94DF206C0120E04F2DE5
:101CC000602F0E946416D8A6CFA20FC089A59AA53E
:101CD000892B59F48FE190E00E94DF206C0120E015
:101CE0004F2D602FF1D7DAA6C9A6612FCE01DDDE18
:101CF000EC01892B09F478C1E02FF0E0E95CF74FA3
:101D000080818F3711F08AE08083EF2DF0E0E95C6D
:101D1000F74F80818F3711F08AE080831B8E1A8EF7
:101D2000198E188E1F8A1E8A60E079E08DE390E09C
:101D3000A50194010E941F22F9012430310518F0F9
:101D4000C901039702C081E090E09D8F8C8F8C8544
:101D500016EF180F143048F09EEC980F943028F0CE
:101D600092EC980F983008F080C0B901769567958D
:101D70006431710518F06351710902C061E070E0CF
:101D80007F8B6E8B369720F0B9016550710902C0C8
:101D900061E070E0798F688FB901660F771F260FB9
:101DA000371F36952795369527952D30310518F034
:101DB0002C50310902C021E030E03B8F2A8F1430D3
:101DC00060F09EEC980F943040F092EC980F9830B1
:101DD00008F40CC1A0E0B0E00BC1A8E6B0E0E8E672
:101DE000F0E09081143018F08E53883010F081E0CC
:101DF00001C084E0892B8C938C8596EF980F9430EA
:101E000058F02EEC280F243038F022EC280F283020
:101E100030F020E030E005C02BE630E002C02DE6D7
:101E200030E03C8B2B8B943010F49AEF0BC0823354
:101E300081F0833381F0843381F092EC980F9830F5
:101E400070F492EC980F81E001C0880F9A95EAF740
:101E500007C088E005C084E003C082E001C081E0E3
:101E60008D8B8C8D9D8D0197F1F7CE01B9C0612FBF
:101E7000CE011BDE5C01892B09F4B6C01E2DCE2DD0
:101E8000DF2D22969C2F9150911B901708F0ACC02B
:101E9000D501ED91FC918881DE0111976C91B0E83C
:101EA0008B9F601911240190F081E02DC5011995D7
:101EB000E8CFF9018181811127C02AA127300CF0D8
:101EC00093C0812F90E0FC013596EE0FFF1FEC0FC1
:101ED000FD1F433070F0D70113968C91B0E88B9FB3
:101EE000C0011124D70112963C91832B91838083EA
:101EF00002C01182108281E0820F8AA3C80FD11D17
:101F000087FDDA951A8370C0813009F06DC09AA1FF
:101F100019161CF08FEF8AA367C080E0492F092EA5
:101F2000000C550B282F30E04217530744F0FE01F8
:101F3000E20FF31F2281211761F08F5FF3CF80E062
:101F400008C0883028F4FE01E20FF31F23812283AA
:101F50008F5F282F30E0421753079CF791509AA3C8
:101F600043C0612FCE01A1DDEC01009709F43CC014
:101F70001830E8F4E881F9810284F385E02D1995A1
:101F8000EA89FB8980818F7E8083EA89FB89808151
:101F9000877F8083EA89FB8980818F778083EA89C4
:101FA000FB8980818F7D80838A8D898F1DC06CD74E
:101FB000CE010E94742118C0612FCE0176DD0097FA
:101FC00099F0DC01ED91FC910284F385E02D1995E7
:101FD0000BC0183048F0612FCE0167DD009721F06B
:101FE00018DD02C080E00AC081E008C0A8E6B0E0C9
:101FF000983008F4F4CEE0E0F0E0F3CEDF91CF913A
:102000001F910F91FF90EF90DF90CF90BF90AF9016
:102010009F908F900895FC01158216821782DC0133
:102020001896885B9F4F1D92A817B907E1F71C927D
:10203000DF01A75BBF4F1D921C92E75DFE4F019031
:10204000F081E02D309709F0199408951F920F92B6
:102050000FB60F9211240BB60F922F933F934F930D
:102060005F936F937F938F939F93AF93BF93EF9300
:10207000FF938091B900887F803609F49CC068F591
:10208000883209F45BC090F4803109F454C038F40C
:10209000882309F4F6C0883009F44DC0F5C08831B2
:1020A00009F44CC0803209F45DC0EEC0803409F4FC
:1020B00068C048F4803309F455C0883309F0E4C09F
:1020C00080935105D8C0803509F44FC0883509F494
:1020D0005DC0883409F0D8C0D6C0883909F4C7C0BB
:1020E000A8F4883709F467C038F4883609F463C067
:1020F000803709F460C0C8C0883809F4B8C0803996
:1021000009F45FC0803809F0BFC05BC0803B09F4B0
:1021100086C038F4803A09F466C0883A09F47FC072
:10212000B3C0803C09F4A7C0883C09F4A4C0883B34
:1021300009F48AC0A9C080912E0510C09091500565
:1021400080914F05981770F5E091500581E08E0F52
:1021500080935005F0E0E15DFA4F80818093BB00F1
:1021600085EC86C0809351058EC0E091500581E0DA
:102170008E0F809350058091BB00F0E0E15DFA4F37
:1021800080839091500580914F056EC0E09150057D
:1021900081E08E0F809350058091BB00F0E0E15DFF
:1021A000FA4F80838091520581116DC081E0809348
:1021B0002D0584EA61C083E0809353051092E50405
:1021C000CFCF8091E504803208F051C0E091E50462
:1021D00081E08E0F8093E5048091BB00F0E0EB532B
:1021E000FB4F8083BDCF85EC8093BC0010925305DC
:1021F0008091E504803230F4E091E504F0E0EB53A7
:10220000FB4F10826091E50470E0E091C304F0910F
:10221000C40485EC94E019951092E50435C084E07F
:10222000809353051092C2041092C104E091BF0440
:10223000F091C00419958091C104811105C081E01D
:102240008093C10410929F04E091C20481E08E0F3C
:102250008093C204F0E0E156FB4F80818093BB0085
:102260009091C2048091C104981708F479CF85E851
:102270008093BC0009C085EC8093BC00109253058C
:1022800003C01092510597DBFF91EF91BF91AF9181
:102290009F918F917F916F915F914F913F912F917E
:1022A0000F900BBE0F900FBE0F901F90189540918E
:1022B000C104262F30E0240F311D21323105DCF41A
:1022C000209153052430C9F4FC0180E090E086178A
:1022D00058F43091C1042191DC01A156BB4FA30FEA
:1022E000B11D2C930196F3CF8091C104680F6093C8
:1022F000C10480E0089581E0089582E00895CF92BE
:10230000DF92EF92FF920F931F93CF93DF936C01B5
:102310007A018B01C0E0D0E0CE15DF0589F0D8014D
:102320006D918D01D601ED91FC910190F081E02D30
:10233000C6011995892B11F47E0102C02196ECCFBC
:10234000C701DF91CF911F910F91FF90EF90DF9028
:10235000CF900895FC01A089B1898C91A689B78995
:1023600082FD0FC09C91818D8F5F8F73228D8217AC
:1023700049F0218DDF01A20FB11D5D969C93818FE5
:1023800008958C910895FC01918D828D981761F0CC
:10239000828DDF01A80FB11D5D968C91928D9F5F9C
:1023A0009F73928F90E008958FEF9FEF0895FC0147
:1023B000918D828D981731F0828DE80FF11D858DFA
:1023C00090E008958FEF9FEF0895FC01918D228D8D
:1023D000892F90E0805C9F4F821B91098F73992712
:1023E000089588E795E0F1DF21E0892B09F420E0EA
:1023F000822F089585E196E0E8DF21E0892B09F43A
:1024000020E0822F089582EB96E0DFDF21E0892B28
:1024100009F420E0822F08958FE497E0D6DF21E0D1
:10242000892B09F420E0822F0895FC01848DDF01BF
:10243000A80FB11DA35ABF4F2C91848D90E0019637
:102440008F739927848FA689B7892C93A089B18926
:102450008C9180648C93938D848D981306C0028830
:10246000F389E02D80818F7D80830895EF92FF9224
:102470000F931F93CF93DF93EC0181E0888F9B8DA7
:102480008C8D981305C0E889F989808185FD23C06A
:10249000F62E0B8D10E00F5F1F4F0F731127E02EEC
:1024A0008C8DE8120BC00FB607FCFACFE889F989CA
:1024B000808185FFF5CFCE01B8DFF2CF8B8DFE0195
:1024C000E80FF11DE35AFF4FF0820B8FEA89FB8979
:1024D0008081806207C0EE89FF896083E889F9897D
:1024E00080818064808381E090E0DF91CF911F91B3
:1024F0000F91FF90EF900895CF93DF93EC01888DBB
:102500008823C1F0EA89FB89808185FD05C0A889FF
:10251000B9898C9186FD0EC00FB607FCF5CF80817E
:1025200085FFF2CFA889B9898C9185FFEDCFCE01C7
:102530007CDFE8CFDF91CF91089580E090E0892B98
:1025400019F06ADF811116C080E090E0892B19F044
:102550005ADF811112C080E090E0892B19F04ADF28
:1025600081110EC080E090E0892B79F03ADF811173
:102570000AC008950E940000E7CF0E940000EBCF40
:102580000E940000EFCF0C940000089590E0FC0141
:102590003197E231F10508F04EC08827EA54FF4F29
:1025A0008F4F0C94C320809180008F7703C080915F
:1025B00080008F7D80938000089580918000877FC8
:1025C000F9CF84B58F7702C084B58F7D84BD08951F
:1025D0008091B0008F7703C08091B0008F7D809391
:1025E000B0000895809190008F7707C0809190008F
:1025F0008F7D03C080919000877F80939000089525
:102600008091A0008F7707C08091A0008F7D03C0CC
:102610008091A000877F8093A00008958091200181
:102620008F7707C0809120018F7D03C080912001AA
:10263000877F8093200108953FB7F8948091290502
:1026400090912A05A0912B05B0912C0526B5A89B49
:1026500005C02F3F19F00196A11DB11D3FBFBA2F34
:10266000A92F982F8827820F911DA11DB11DBC0194
:10267000CD0142E0660F771F881F991F4A95D1F759
:10268000089520918003309181032817390771F450
:102690009091E7048091E604981741F0E091E704F7
:1026A000F0E0E851FB4F808190E008958FEF9FEFBD
:1026B000089508951F93CF93DF93DC015C962D91CD
:1026C0003C915D972115310539F481E090E0139636
:1026D0009C938E9312973DC05196ED91FC91529729
:1026E00050969C915097892F80951FB75E964C917C
:1026F0005E9741FB772770F941FD6095F894408122
:10270000772311F0492B01C048234083E901219729
:10271000F1F748E0508160FF02C0592B01C05823F7
:102720005083E9012197F1F76695415099F7772396
:1027300021F090818923808303C08081982B90832E
:102740001FBF5C968D919C915D970197F1F721E0F9
:1027500030E0C901DF91CF911F910895209180034E
:10276000309181032817390769F48091E60420919C
:10277000E70490E0805C9F4F821B910960E470E069
:102780000C94B02080E090E0089520918003309177
:10279000810328173907B9F49091E7048091E60482
:1027A000981789F0E091E704F0E0E851FB4F808151
:1027B0002091E70430E02F5F3F4F2F7333272093A2
:1027C000E70490E008958FEF9FEF08950E940C2298
:1027D0001F920F920FB60F9211240BB60F922F93E8
:1027E0003F934F935F936F937F938F939F93AF9399
:1027F000BF93EF93FF9388E795E017DEFF91EF918A
:10280000BF91AF919F918F917F916F915F914F9108
:102810003F912F910F900BBE0F900FBE0F901F9006
:1028200018951F920F920FB60F9211240BB60F92AC
:102830002F933F934F935F936F937F938F939F93C8
:10284000AF93BF93EF93FF9388E795E083DDFF910C
:10285000EF91BF91AF919F918F917F916F915F9118
:102860004F913F912F910F900BBE0F900FBE0F9085
:102870001F9018951F920F920FB60F9211240BB64E
:102880000F922F933F934F935F936F937F938F9309
:102890009F93AF93BF93EF93FF9385E196E0C5DDE0
:1028A000FF91EF91BF91AF919F918F917F916F9128
:1028B0005F914F913F912F910F900BBE0F900FBEE4
:1028C0000F901F9018951F920F920FB60F92112420
:1028D0000BB60F922F933F934F935F936F937F931A
:1028E0008F939F93AF93BF93EF93FF9385E196E010
:1028F00031DDFF91EF91BF91AF919F918F917F91CA
:102900006F915F914F913F912F910F900BBE0F9060
:102910000FBE0F901F9018951F920F920FB60F9237
:1029200011240BB60F922F933F934F935F936F93A6
:102930007F938F939F93AF93BF93EF93FF9382EB1C
:1029400096E073DDFF91EF91BF91AF919F918F91D1
:102950007F916F915F914F913F912F910F900BBE9F
:102960000F900FBE0F901F9018951F920F920FB6E9
:102970000F9211240BB60F922F933F934F935F93B7
:102980006F937F938F939F93AF93BF93EF93FF9337
:1029900082EB96E0DFDCFF91EF91BF91AF919F91C9
:1029A0008F917F916F915F914F913F912F910F90F8
:1029B0000BBE0F900FBE0F901F9018951F920F9295
:1029C0000FB60F9211240BB60F922F933F934F9394
:1029D0005F936F937F938F939F93AF93BF93EF9387
:1029E000FF938FE497E021DDFF91EF91BF91AF91CD
:1029F0009F918F917F916F915F914F913F912F9117
:102A00000F900BBE0F900FBE0F901F9018951F9246
:102A10000F920FB60F9211240BB60F922F933F9384
:102A20004F935F936F937F938F939F93AF93BF93D6
:102A3000EF93FF938FE497E08DDCFF91EF91BF91CF
:102A4000AF919F918F917F916F915F914F913F9146
:102A50002F910F900BBE0F900FBE0F901F901895E7
:102A6000CF93DF93282F30E0F901E659FD4F849191
:102A7000F901EC5DFD4FD491F901E252FE4FC49192
:102A8000CC2389F0811182DDEC2FF0E0EE0FFF1FE7
:102A9000EC53FE4FA591B491EC91ED2381E090E0D1
:102AA00021F480E002C080E090E0DF91CF910895B2
:102AB0001F93CF93DF93282F30E0F901E659FD4FA4
:102AC0008491F901EC5DFD4FD491F901E252FE4F82
:102AD000C491CC23C1F0162F811158DDEC2FF0E00A
:102AE000EE0FFF1FE655FE4FA591B4918FB7F894F6
:102AF000111105C09C91ED2FE095E92302C0EC91E6
:102B0000ED2BEC938FBFDF91CF911F910895CF9361
:102B1000DF9390E0FC01EC5DFD4F2491FC01E2525B
:102B2000FE4F8491882361F190E0880F991FFC018A
:102B3000E057FE4FC591D491FC01E655FE4FA5919B
:102B4000B491611109C09FB7F894888120958223C0
:102B50008883EC912E230BC0623061F49FB7F89408
:102B60003881822F809583238883EC912E2B2C93A0
:102B70009FBF06C08FB7F894E8812E2B28838FBFA4
:102B8000DF91CF910895863308F0865390917B00B2
:102B9000282F2870977F922B90937B0087708064FA
:102BA00080937C0080917A00806480937A00809189
:102BB0007A0086FDFCCF809178002091790090E02A
:102BC000922B08958F929F92AF92BF92CF92DF92F5
:102BD000EF92FF926B017C012FDD4B015C01C11470
:102BE000D104E104F104E9F027DDDC01CB0188190F
:102BF0009909AA09BB09883E9340A105B10578F35C
:102C000021E0C21AD108E108F10888EE880E83E0BD
:102C1000981EA11CB11CC114D104E104F10421F7D8
:102C2000DECFFF90EF90DF90CF90BF90AF909F905E
:102C30008F9008951F920F920FB60F9211242F9329
:102C40003F938F939F93AF93BF9380917C03909119
:102C50007D03A0917E03B0917F033091280523E08E
:102C6000230F2D3720F40196A11DB11D05C026E8C4
:102C7000230F0296A11DB11D2093280580937C038C
:102C800090937D03A0937E03B0937F0380912905E9
:102C900090912A05A0912B05B0912C050196A11DBC
:102CA000B11D8093290590932A05A0932B05B0931D
:102CB0002C05BF91AF919F918F913F912F910F90D4
:102CC0000FBE0F901F9018950F931F93CF93DF9314
:102CD000EC01162F042F1B821A8288EE93E0A0E0ED
:102CE000B0E08C839D83AE83BF8387E192E09983BC
:102CF00088831F8A1E8A198E188E1B8E1A8E1D8E2F
:102D00001C8E6E8D6E7F20FB61F96E8F66956170F3
:102D100081E06827842FCCDE61E0802FF8DE402F31
:102D200050E0FA01EC5DFD4FE491E88BFA01E252CC
:102D3000FE4FE491F0E0EE0FFF1FE655FE4F859148
:102D400094919A8B898B60E0812FE1DE8E8D81FDDD
:102D500003C061E0812FACDE1C87612F70E0FB01B6
:102D6000EC5DFD4FE491ED87FB01E252FE4FE491F3
:102D7000F0E0EE0FFF1FEC53FE4F859194919F877B
:102D80008E87DF91CF911F910F9108951F920F921F
:102D90000FB60F9211240BB60F922F933F934F93C0
:102DA0005F936F937F938F939F93AF93BF93EF93B3
:102DB000FF93E0918003F0918103309709F451C0B3
:102DC000968DA685B785858591FF04C09C91892342
:102DD00029F447C09C91892309F043C0A389B48991
:102DE0009C918589809589238C9386899789019701
:102DF000F1F7608D718DA685B785558538E020E0A7
:102E0000CB010197F1F7822F90E095958795282FB8
:102E10004C91452309F02068315091F7868D81FD52
:102E200020958091E60490E001968F739927309168
:102E3000E704381749F0A091E604B0E0A851BB4F71
:102E40002C938093E60403C0868D8160868F828DEB
:102E5000938D0197F1F7A389B4899C918589892B7A
:102E60008C93FF91EF91BF91AF919F918F917F9143
:102E70006F915F914F913F912F910F900BBE0F90EB
:102E80000FBE0F901F901895E0918003F091810381
:102E9000E817F90769F4A389B4899C91858980951D
:102EA00089238C93109281031092800381E008950E
:102EB00080E008950F931F93CF93DF93EC010CEE06
:102EC00017E0D8018D919C91DC01ED91FC916C2F64
:102ED0006F770190F081E02D1995F8018081918143
:102EE000DC01ED91FC91CC0FCD2FCC1FDD0B6C2FB5
:102EF0006F770190F081E02DDF91CF911F910F91BD
:102F000019948091EC079091ED07DC01ED91FC9113
:102F10000190F081E02D67EF19948091EC0790917A
:102F2000ED07DC01ED91FC910190F081E02D60EF67
:102F30001994CF93DF93EB01A091EC07B091ED07CB
:102F4000ED91FC9111978F70682F606E0190F08168
:102F5000E02DCD011995CE01DF91CF91ABCFEF924E
:102F6000FF920F931F93CF93DF9300D0CDB7DEB7BF
:102F7000162F4A835B838983D0DFA091EC07B09141
:102F8000ED07ED91FC9111970190F081E02D898181
:102F9000682FCD0119954A81042FE42E5B81F52E0F
:102FA0008E2D801B811730F4F70181917F0190E015
:102FB00081DFF6CF0F900F900F90DF91CF911F918F
:102FC0000F91FF90EF909DCFFC0101900020E9F759
:102FD0003197BF01681B790BAC0181E7C0CF382F57
:102FE0002091770590917605213208F049C08091B3
:102FF00053058111FCCF42E04093530530935205B5
:103000003FEF309351051092500520934F05A6E5F0
:10301000B5E04FE255E0FA013E2F341B321718F4A9
:103020003D913193F9CF10922E0520912E05990FE5
:10303000922B90932E0590912D05913061F4109272
:103040002D0590912E059093BB009091BC0093FDAF
:10305000F8CF95EC01C095EE9093BC00909153058C
:103060009230E1F3909151059F3F79F080915105A5
:10307000803241F080915105803331F084E005C009
:1030800081E003C082E001C083E0109255051092F8
:103090007705109254050895A091EC07B091ED07C3
:1030A000ED91FC9111970190F081E02D682FCD01F9
:1030B0001994CF93DF93CCEED7E088819981DC011E
:1030C000ED91FC910190F081E02D69EF19958881D7
:1030D0009981DC01ED91FC910190F081E02D62E09D
:1030E000199588819981DC01ED91FC910190F08125
:1030F000E02D65E0DF91CF911994CF930EDF8091A1
:10310000EC079091ED07DC01ED91FC910190F081CD
:10311000E02D69E719958091EC079091ED07DC01AE
:10312000ED91FC91A091EF07B091F0070190F08133
:10313000E02D6C9119958091EC079091ED07DC01E1
:10314000ED91FC91A091EF07B091F0070190F08113
:10315000E02D11966C911995C2E08091EE07C81789
:1031600058F4E091EF07F091F007EC0FF11D80812A
:1031700090E0A0DECF5FF1CFCF91C3CECF92DF92B0
:10318000EF92FF920F931F93CF93DF93EC016A01AD
:103190007B01E889F98982E080834115514E610500
:1031A0007105B1F060E079E08DE390E0A701960150
:1031B0000E944B2289019A0101501109210931090C
:1031C0003695279517950795980101151041A8F098
:1031D000E889F989108260E874E88EE190E0A7013F
:1031E00096010E944B22DA01C9010197A109B10998
:1031F000B695A795979587959C01EC85FD853083BD
:10320000EE85FF852083188EEC89FD8986E080831A
:10321000EA89FB89808180618083EA89FB898081DA
:1032200088608083EA89FB89808180688083EA895D
:10323000FB8980818F7D8083DF91CF911F910F91DA
:10324000FF90EF90DF90CF900895789484B58260DE
:1032500084BD84B5816084BD85B5826085BD85B53A
:10326000816085BD80916E00816080936E001092B8
:103270008100809181008260809381008091810033
:1032800081608093810080918000816080938000C4
:103290008091B10084608093B1008091B000816022
:1032A0008093B00080919100826080939100809122
:1032B0009100816080939100809190008160809363
:1032C00090008091A10082608093A1008091A10074
:1032D00081608093A1008091A00081608093A00014
:1032E0008091210182608093210180912101816080
:1032F0008093210180912001816080932001809141
:103300007A00846080937A0080917A008260809352
:103310007A0080917A00816080937A0080917A00AF
:10332000806880937A001092C1008CE18093EE0750
:103330008091EF079091F007D7D7C091EE07D0E0CA
:10334000CE0101963CD79093F0078093EF07FC01E4
:10335000EC0FFD1F108222E0DC012C9325E011967A
:103360002C93AE014250510961EA72E002960E942C
:10337000102283E598E090930A098093090989EB6C
:1033800092E090930C0980930B0987EA96E0909362
:103390000E0980930D0983E296E0909310098093C3
:1033A0000F0984E59BE090931209809311098EE345
:1033B00098E0909314098093130980EB93E0909325
:1033C0001A098093190987E693E090931609809370
:1033D000150981E080931B0940E051EE60E070E048
:1033E0008FE497E0CBDE8FE497E09093ED07809336
:1033F000EC0780911B09811141C061E08DE087DB02
:1034000062ED70E080E090E0DDDB61E08DE050DBBC
:1034100068E270E080E090E0D5DB60E08DE048DBC2
:1034200062ED70E080E090E0CDDB61E08DE040DBBC
:1034300068E270E080E090E0C5DB60E08DE038DBC2
:103440006AEF70E080E090E0BDDBC0E062ED70E02C
:1034500080E090E0B7DB61E08DE02ADB68E270E0BD
:1034600080E090E0AFDB60E08DE022DBCF5FC53035
:1034700069F76DE770E080E090E0A4DB1ADE8091F0
:10348000EE0781113ADE0E94670315E0AA24A39497
:1034900002E080917303882391F1F0906A03F2FEB9
:1034A0002FC482E0DDDA892B09F42AC4C4E0F3FEDC
:1034B00005C083E0D5DA892B09F024C4F4FE05C0E9
:1034C00084E0CEDA892B09F01FC4F5FE05C085E043
:1034D000C7DA892B09F01AC4F6FE05C086E0C0DA07
:1034E000892B09F015C4F7FE05C087E0B9DA892BEE
:1034F00009F010C440E06C2F80E00E94E509809143
:103500007403882309F440C0F0906B03F0FE04C4F8
:1035100088E0A6DA892B09F4FFC3C1E0F1FE05C0FB
:1035200089E09EDA892B09F0F9C3F2FE05C08AE032
:1035300097DA892B09F0F4C3F3FE05C08BE090DA2B
:10354000892B09F0EFC3F4FE05C08CE089DA892BE2
:1035500009F0EAC3F5FE05C08DE082DA892B09F097
:10356000E5C3F6FE05C08EE07BDA892B09F0E0C3E7
:10357000F7FE05C08FE074DA892B09F0DBC340E069
:103580006C2F81E00E94E50980917503882309F47E
:1035900040C0F0906C03F0FECFC380E161DA892B6C
:1035A00009F4CAC3C1E0F1FE05C081E159DA892BF3
:1035B00009F0C4C3F2FE05C082E152DA892B09F09A
:1035C000BFC3F3FE05C083E14BDA892B09F0BAC310
:1035D000F4FE05C084E144DA892B09F0B5C3F5FE99
:1035E00005C085E13DDA892B09F0B0C3F6FE05C0C0
:1035F00086E136DA892B09F0ABC3F7FE05C087E117
:103600002FDA892B09F0A6C340E06C2F82E00E94DC
:10361000E50980917603882309F440C0F0906D039A
:10362000F0FE9AC388E11CDA892B09F495C3C1E046
:10363000F1FE05C089E114DA892B09F08FC3F2FE8F
:1036400005C08AE10DDA892B09F08AC3F3FE05C0B3
:103650008BE106DA892B09F085C3F4FE05C08CE105
:10366000FFD9892B09F080C3F5FE05C08DE1F8D99B
:10367000892B09F07BC3F6FE05C08EE1F1D9892BB9
:1036800009F076C3F7FE05C08FE1EAD9892B09F06E
:1036900071C340E06C2F83E00E94E50980917703BD
:1036A000882309F440C0F0906E03F0FE65C380E209
:1036B000D7D9892B09F460C3C1E0F1FE05C081E2CE
:1036C000CFD9892B09F05AC3F2FE05C082E2C8D9CE
:1036D000892B09F055C3F3FE05C083E2C1D9892BBC
:1036E00009F050C3F4FE05C084E2BAD9892B09F071
:1036F0004BC3F5FE05C085E2B3D9892B09F046C35B
:10370000F6FE05C086E2ACD9892B09F041C3F7FE6D
:1037100005C087E2A5D9892B09F03CC340E06C2F96
:1037200084E00E94E50980917803882309F440C071
:10373000F0906F03F0FE30C388E292D9892B09F430
:103740002BC3C1E0F1FE05C089E28AD9892B09F0BB
:1037500025C3F2FE05C08AE283D9892B09F020C374
:10376000F3FE05C08BE27CD9892B09F01BC3F4FE64
:1037700005C08CE275D9892B09F016C3F5FE05C08A
:103780008DE26ED9892B09F011C3F6FE05C08EE2D9
:1037900067D9892B09F00CC3F7FE05C08FE260D909
:1037A000892B09F007C340E06C2F85E00E94E509F2
:1037B00080917903882309F440C0F0907003F0FEF3
:1037C000FBC280E34DD9892B09F4F6C2C1E0F1FEBA
:1037D00005C081E345D9892B09F0F0C2F2FE05C08E
:1037E00082E33ED9892B09F0EBC2F3FE05C083E3E7
:1037F00037D9892B09F0E6C2F4FE05C084E330D93D
:10380000892B09F0E1C2F5FE05C085E329D9892B92
:1038100009F0DCC2F6FE05C086E322D9892B09F047
:10382000D7C2F7FE05C087E31BD9892B09F0D2C2A6
:1038300040E06C2F86E00E94E50980917A0388239E
:1038400009F440C0F0907103F0FEC6C288E308D9C5
:10385000892B09F4C1C2C1E0F1FE05C089E300D99A
:10386000892B09F0BBC2F2FE05C08AE3F9D8892B87
:1038700009F0B6C2F3FE05C08BE3F2D8892B09F03C
:10388000B1C2F4FE05C08CE3EBD8892B09F0ACC2C1
:10389000F5FE05C08DE3E4D8892B09F0A7C2F6FE3A
:1038A00005C08EE3DDD8892B09F0A2C2F7FE05C062
:1038B0008FE3D6D8892B09F09DC240E06C2F87E0BA
:1038C0000E94E50980917B03882309F442C0F090AF
:1038D0007203F0FE91C280E4C3D8892B09F48CC234
:1038E000C1E0F1FE05C081E4BBD8892B09F086C296
:1038F000F2FE05C082E4B4D8892B09F081C2F3FE40
:1039000005C083E4ADD8892B09F07CC2F4FE05C064
:1039100084E4A6D8892B09F077C2F5FE05C085E4BA
:103920009FD8892B09F072C240E06C2F88E00E947A
:10393000E5090FC08091EC079091ED07EC01E8815B
:10394000F9810680F781E02D19958F3FDFEF9D0704
:1039500071F48091EC079091ED07DC01ED91FC9101
:103960000480F581E02D1995892B21F71CC1382F92
:1039700020913408222309F466C0873F09F054C01F
:10398000109234088091F407813749F0893709F0A3
:103990003DC08091EE078823E1F2AFDBDACFE09102
:1039A0001709F09118093097A1F22091350830914C
:1039B0003608C901019797FDC90195958795F82E9D
:1039C000A4EFB7E040E050E030E04E5F5F4F3F15BE
:1039D00070F4BA016451784FEB012F812C93688504
:1039E000D0E86D9F201911242D933F5FEECF9927CA
:1039F000DC01A451B84F17968C911797882311F0CA
:103A000018961C9284EF97E01995A3CFE0911909BD
:103A1000F0911A09309709F49CCF609135086150F4
:103A200045EF57E0199595CF20913508309136082C
:103A3000F901E451F84F80872F5F3F4F30933608EC
:103A40002093350886CF2091F107222309F469C01D
:103A500087FD67C09FEF920F9093F107E92FF0E089
:103A6000E451F84F8087911174CF8091F207882339
:103A700009F46FCF803D09F445C050F4803901F15D
:103A8000803C09F04BC0E0910D09F0910E093EC059
:103A9000843F39F1853F51F1803E09F03FC0E0910C
:103AA0000909F0910A093097C9F18091F4076091F2
:103AB000F50770E020E8829F600D711D11242BC076
:103AC000E0910B09F0910C09309741F18091F407D6
:103AD0006091F50770E090E8899F600D711D1124D9
:103AE0001AC0E0911109F091120904C0E091130984
:103AF000F0911409309791F06091F40770E0809193
:103B0000F5070BC0E0910F09F0911009309731F0E3
:103B10006091F40770E08091F30719951092F20715
:103B200018CF303F38F4282F207F30E08F708093FB
:103B3000F30702C09C013327203F310559F17CF483
:103B4000203C310511F124F420393105D9F001CFA1
:103B5000203D3105D1F0203E3105A1F0FACE293FBC
:103B60003105F9F034F4C901845F9109029750F0EE
:103B7000F0CE2F3F310509F0ECCE8CEE97E00E949D
:103B80000B10E7CE0093F10702C0A092F10720933B
:103B9000F207DFCEA0923408109236081092350852
:103BA000D8CE87DAD6CE8FB7F894C0907C03D09069
:103BB0007D03E0907E03F0907F038FBFC092B0033F
:103BC000D092B103E092B203F092B3038091AC03C0
:103BD0009091AD03A091AE03B091AF03409101026B
:103BE0005091020260E070E0C81AD90AEA0AFB0AA2
:103BF0004C155D056E057F0530F080916B0A87FDE1
:103C00007CC0B12C64C0840F951FA61FB71F809382
:103C1000AC039093AD03A093AE03B093AF0397E3CF
:103C2000E92E98E0F92ECAECC031B0F4F70180819A
:103C3000823091F48091AA039091AB030C2E02C0C4
:103C4000959587950A94E2F780FF06C08C2F0E9415
:103C5000C315BC018C2F6DD9CF5FFFEFEF1AFF0AA0
:103C6000C03111F78091000287FDC7CFC0E02C2F33
:103C700030E080910002082E000C990B8217930708
:103C80000CF4BBCF129FF001139FF00D1124EE57DF
:103C9000FC4F618172812481438180810E942A0AC4
:103CA000CF5FE5CFFC01E75BF54FC281EC2FF0E081
:103CB000EE0FFF1FED5AF54FC080D1806C2F89E4C5
:103CC0009AE00E94550D7C01892B61F4B3948B2DF1
:103CD00090E020916B0A022E000C330B2817390755
:103CE0000CF70BC0C83008F493C08091800390910A
:103CF0008103E816F90651F78BC00E949D12C9CBCB
:103D0000C0E0D5CBC860DACBC061DFCBC062E4CB0A
:103D1000C064E9CBC068EECBC0E000CCC26005CC8B
:103D2000C4600ACCC8600FCCC06114CCC06219CC8E
:103D3000C0641ECCC06823CCC0E035CCC2603ACC95
:103D4000C4603FCCC86044CCC06149CCC0624ECC9A
:103D5000C06453CCC06858CCC0E06ACCC2606FCCA1
:103D6000C46074CCC86079CCC0617ECCC06283CCA6
:103D7000C06488CCC0688DCCC0E09FCCC260A4CCAD
:103D8000C460A9CCC860AECCC061B3CCC062B8CCB2
:103D9000C064BDCCC068C2CCC0E0D4CCC260D9CCB9
:103DA000C460DECCC860E3CCC061E8CCC062EDCCBE
:103DB000C064F2CCC068F7CCC0E009CDC2600ECDC3
:103DC000C46013CDC86018CDC0611DCDC06222CDC6
:103DD000C06427CDC0682CCDC0E03ECDC26043CDCD
:103DE000C46048CDC8604DCDC06152CDC06257CDD2
:103DF000C0645CCDC06861CDC0E073CDC26078CDD9
:103E0000C4607DCDC86082CDC06187CDC0628CCDDD
:103E1000D701ED91FC910480F581E02DC701199542
:103E2000181619060CF052CF80EF36D980E634D937
:103E30008C2F806431D9C114D10459F0D701ED9190
:103E4000FC910480F581E02DC7011995C816D906AB
:103E50004CF0E701E881F9810480F581E02DC7018C
:103E600019956C011C141D04A4F4E701E881F98183
:103E70000680F781E02DC7011995C82F8F770CD9DF
:103E80008C2F881F8827881F07D9D1E0CD1AD10829
:103E9000E9CF87EF01D91ACFCF92DF92EF92FF924D
:103EA00010927B0510927A0578EEC72E73E0D72E1C
:103EB000E12CF12CC0927C05D0927D05E0927E052C
:103EC000F0927F0587E292E09093790580937805E0
:103ED00025E331E0309385052093840524E331E028
:103EE000309387052093860520E331E030938905E0
:103EF0002093880521E331E030938B0520938A05D8
:103F000022E331E030938D0520938C0526E331E0E8
:103F100030938F0520938E05109291051092920593
:103F2000109293051092940510921806109217069D
:103F3000C0921906D0921A06E0921B06F0921C0657
:103F4000909316068093150625ED30E030932206F7
:103F50002093210624ED30E030932406209323069D
:103F600020ED30E0309326062093250621ED30E049
:103F7000309328062093270622ED30E030932A065E
:103F80002093290626ED30E030932C0620932B0653
:103F900010922E0610922F061092300610923106C3
:103FA0001092B5061092B406C092B606D092B7062B
:103FB000E092B806F092B9069093B3068093B206E9
:103FC0002DEC30E03093BF062093BE062CEC30E0A1
:103FD0003093C1062093C00628EC30E03093C3062E
:103FE0002093C20629EC30E03093C5062093C40626
:103FF0002AEC30E03093C7062093C6062EEC30E062
:104000003093C9062093C8061092CB061092CC06B6
:104010001092CD061092CE061092520710925107C0
:10402000C0925307D0925407E0925507F09256077A
:104030009093500780934F0785EC90E090935C0736
:1040400080935B0784EC90E090935E0780935D071C
:1040500080EC90E09093600780935F0781EC90E0A4
:10406000909362078093610782EC90E090936407DD
:104070008093630786EC90E09093660780936507D2
:10408000109268071092690710926A0710926B07E6
:1040900010921B091092EE071092F0071092EF0792
:1040A0008CEE97E00E940B1010921F0910921E09CF
:1040B000C0922009D0922109E0922209F0922309AE
:1040C00087E392E090931D0980931C098FE592E0AD
:1040D00090934A0A8093490A10926D0A10926C0AD2
:1040E00010926F0A10926E0A1092710A1092700A62
:1040F0001092730A1092720A8FEF80936B0A80916C
:10410000B809A9EBB9E09FEF48EB5BE0803378F4A6
:104110008C93282F30E0F901EE0FFF1F2E0F3F1F69
:10412000F901E85DF64F528341838F5F01C09C9394
:1041300013962AE0A934B20749F78093B809FF9093
:10414000EF90DF90CF900895991B79E004C0991FFC
:10415000961708F0961B881F7A95C9F780950895E1
:1041600097FB072E16F4009406D077FD08D013D0E5
:1041700007FC05D03EF4909581959F4F089570956A
:1041800061957F4F0895EE0FFF1F881F8BBF07902B
:10419000F691E02D1994AA1BBB1B51E107C0AA1F81
:1041A000BB1FA617B70710F0A61BB70B881F991FD8
:1041B0005A95A9F780959095BC01CD010895CF93AC
:1041C000DF938230910510F482E090E0E091760A6E
:1041D000F091770A20E030E0C0E0D0E0309711F1B4
:1041E0004081518148175907C0F04817590761F4B9
:1041F00082819381209719F09B838A832BC09093AF
:10420000770A8093760A26C02115310519F04217E6
:10421000530718F49A01BE01DF01EF010280F38118
:10422000E02DDCCF2115310509F1281B390B243095
:10423000310590F412968D919C911397611571053B
:1042400021F0FB019383828304C09093770A8093CB
:10425000760AFD01329644C0FD01E20FF31F8193FF
:104260009193225031092D933C933AC02091740AC6
:104270003091750A232B41F42091050230910602FA
:104280003093750A2093740A20910302309104023E
:104290002115310541F42DB73EB7409107025091E9
:1042A0000802241B350BE091740AF091750AE2179D
:1042B000F307A0F42E1B3F0B2817390778F0AC0149
:1042C0004E5F5F4F2417350748F04E0F5F1F509326
:1042D000750A4093740A8193919302C0E0E0F0E084
:1042E000CF01DF91CF9108950F931F93CF93DF9369
:1042F000009709F48CC0FC0132971382128200915E
:10430000760A1091770A0115110581F42081318117
:10431000820F931F2091740A3091750A281739076C
:1043200079F5F093750AE093740A71C0D80140E002
:1043300050E0AE17BF0750F412962D913C911397A1
:10434000AD012115310509F1D901F3CF9D01DA0144
:104350003383228360817181860F971F82179307B1
:1043600069F4EC0128813981260F371F2E5F3F4FFA
:10437000318320838A819B8193838283452B29F417
:10438000F093770AE093760A42C01396FC93EE937B
:104390001297ED01499159919E01240F351FE217A3
:1043A000F30771F480819181840F951F0296119615
:1043B0009C938E938281938113969C938E931297F4
:1043C000E0E0F0E0D80112968D919C911397009750
:1043D00019F0F8018C01F6CF8D919C9198012E5F18
:1043E0003F4F820F931F2091740A3091750A28174E
:1043F000390769F4309729F41092770A1092760AF7
:1044000002C0138212821093750A0093740ADF911E
:10441000CF911F910F91089581E090E0F8946CC0C6
:10442000FB01DC014150504048F001900D9200200A
:10443000C9F701C01D9241505040E0F70895052E84
:1044400097FB16F400940FD057FD05D024D007FC3D
:1044500002D046F408C050954095309521953F4FC5
:104460004F4F5F4F089590958095709561957F4F60
:104470008F4F9F4F089531D0A59F900DB49F900D01
:10448000A49F800D911D11240895B7FFF4CFF3DF91
:10449000821B930B0895A1E21A2EAA1BBB1BFD01E0
:1044A0000DC0AA1FBB1FEE1FFF1FA217B307E40713
:1044B000F50720F0A21BB30BE40BF50B661F771F6B
:1044C000881F991F1A9469F760957095809590954B
:1044D0009B01AC01BD01CF010895A29FB001B39F24
:1044E000C001A39F700D811D1124911DB29F700DFD
:0C44F000811D1124911D0895F894FFCF48
:1044FC00FF13000000780A80000100000012100E6B
:10450C0013110F000000005A137F11AE13C5134195
:10451C001359130000000036127F11E511C311D797
:10452C00117C1200000000C30193018B01F50CE615
:10453C000CE50C00000000E6137F11E613E613E611
:10454C0013E61300000000E6137F11000000003298
:10455C000DCA0CA00D830D443A5C55736572735CE7
:10456C00733535313534345C446F63756D656E74F9
:10457C00735C41726475696E6F5C6D795F537461C5
:10458C006E646172644669726D617461506C7573AE
:10459C005C6D795F5374616E646172644669726DAF
:1045AC00617461506C75732E696E6F0031302D62C1
:1045BC0069742061646472657373696E67206E6FD1
:1045CC007420737570706F7274656400746F6F20F3
:1045DC006D616E792071756572696573004932433E
:1045EC003A20546F6F206D616E7920627974657317
:1045FC00207265636569766564004932433A2054DC
:10460C006F6F2066657720627974657320726563BD
:10461C006569766564004D617820736572766F7399
:10462C0020617474616368656400556E6B6E6F779E
:10463C006E2070696E206D6F6465005370656369E0
:10464C0066792073657269616C20525820616E64C2
:0A465C002054582070696E730000AE
:00000001FF
