:100000000C9489000C94B1000C94B1000C94100E67
:100010000C94100E0C94100E0C94B1000C94B100C2
:100020000C94B1000C94B1000C94B1000C94FE043B
:100030000C94B1000C94B1000C94B1000C94B1007C
:100040000C94C60D0C94B1000C94B60A0C94900A52
:100050000C94B1000C94B1000C94B1000C94B1005C
:100060000C94FD100C94B100D9030004C7031404D0
:10007000340472045D047204720472046904E903B6
:100080004509560956095609560956095609560989
:100090005609330956099A085609EA085609780894
:1000A000200856095609560956095609FA065609EE
:1000B000D7075609640800000000240027002A0022
:1000C00000000000250028002B00040404040404A0
:1000D00004040202020202020303030303030102F7
:1000E00004081020408001020408102001020408C6
:1000F00010200000000800020100000304070000B7
:10010000000000000000000000002300260029007D
:10011000E91711241FBECFEFD8E0DEBFCDBF25E029
:10012000A4E6B2E001C01D92A23CB207E1F712E0E2
:10013000A0E0B1E0EAEDF4E302C005900D92A43630
:10014000B107D9F710E0C9E8D0E004C02197FE015B
:100150000E94AD18C838D107C9F70E9481140C94C9
:100160006B1A0C940000A82FB0E0AC54BD4F9C91CA
:10017000292F30E0F901EE0FFF1F2E0F3F1FF9016D
:10018000E159FA4FE081F0E09F01220F331FE20FA7
:10019000F31FE65BFA4F80818F7B80838091B202F0
:1001A000981306C0992379F091509093B2020BC036
:1001B000882349F0E091B302EF5FE093B302F0E0EF
:1001C000ED59FD4F90838FEF8C9308959EEF980F1C
:1001D000923180F4E82FF0E0DF01A151BB4F9C91F8
:1001E000913041F4EE0FFF1FED5FFA4F6083718392
:1001F0000C94E80A0895CF93863080F5409102036D
:100200005091030321E030E0672B81F4B90102C073
:10021000660F771F8A95E2F7CB018095909584232E
:100220009523909303038093020318C0082E02C005
:10023000220F331F0A94E2F7242B352B309303034C
:10024000209302039091CC02911108C0C82F0E9404
:10025000700BBC018C2FCF910C94EC12CF910895B0
:10026000BF92CF92DF92EF92FF920F931F93CF93A3
:10027000DF9300D0CDB7DEB7833008F081C0282FE0
:10028000220F220F220F285F253108F024E1B62E1D
:10029000F82EE82EEE0CEE0CEE0C30E0CC24C394DD
:1002A000E21610F58EEF8E0D8231D8F40E2D10E08F
:1002B000F801E151FB4F9081923098F4DD24D39402
:1002C0008C2D8B2109F4D12C000F111F913009F0D6
:1002D00043C03C29F801ED5FFA4F8D2D90E09183EA
:1002E0008083CC0CE394DCCFF1100AC03C7FF894FF
:1002F0008BB1632F609568233B21632B6BB92AC0B8
:1003000081E0F8121AC02B2D2323F89495B1832F86
:100310008F7380958923922F9F73892B85B988B11C
:10032000229526952695237032953695369533700D
:1003300030958323822B88B90DC03F70F89488B123
:10034000632F660F660F609568233B21330F330FD1
:10035000632B68B9789414C0DD2009F4BBCFF80191
:10036000ED5FFA4F80819181019709F4B3CF62E08C
:100370008E2D2A8339830E94340B2A813981AACF9A
:100380000F900F90DF91CF911F910F91FF90EF9001
:10039000DF90CF90BF9008956F927F928F929F923F
:1003A000AF92BF92CF92DF92EF92FF920F931F9383
:1003B000CF93DF931F92CDB7DEB7982F3B018431E7
:1003C00008F004C1082F10E0F801E151FB4F8081D3
:1003D000833009F490C0843009F0F8C09250923113
:1003E00008F0EDC0F801EC54FD4FE080F12C6701FE
:1003F000CC0CDD1C603282E078070CF042C077FD47
:1004000005C0653B710524F4DB0104C0A0E001C018
:10041000A4EBB0E0F601EE0DFF1DE159FA4F81812A
:1004200028E830E04901881A910887FD9394880CE8
:10043000991C880C991C092C000CAA08BB08828105
:1004400028E532E0281B310987FD3395220F331F41
:10045000220F331FA901330F660B770B9A01AB01F3
:10046000281939094A095B090E94321A24EB30E045
:1004700040E050E00E94081A820E931EA41EB51E92
:1004800001C04B01F601EE0DFF1DE159FA4F20812D
:100490002C3008F094C0318188E890E0831B9109EA
:1004A00037FD9395880F991F880F991F8816990615
:1004B00084F0828148E552E0481B510987FD53953D
:1004C000440F551F440F551FC401481559050CF41E
:1004D000CA010297880F991F4FB7F89430E0F901CD
:1004E000EE0FFF1F2E0F3F1FF901E65BFA4F9283BD
:1004F00081834FBF64C0933049F08BEF890F823006
:1005000028F087EF890F833008F059C061E0892F08
:1005100099830E94340B99816114710411F460E095
:1005200005C08FEF6816710429F461E0892F0E94DD
:10053000E80A45C0F801EE50FF4FE491E330F9F0CE
:1005400048F4E130B9F0E230A1F584B5806284BDB1
:1005500068BC35C0E730E9F0E83019F1E43049F51E
:100560008091800080628093800070928B00609206
:100570008A0025C084B5806884BD67BC20C0809196
:10058000800080688093800070928900609288006B
:1005900016C08091B00080688093B0006092B30074
:1005A0000EC08091B00080628093B0006092B40071
:1005B00006C080E8681671040CF0B7CFB0CF000F0A
:1005C000111FF801ED5FFA4F718260820F90DF9189
:1005D000CF911F910F91FF90EF90DF90CF90BF9040
:1005E000AF909F908F907F906F900895DB019091D6
:1005F000B2029C30A8F53091B302682F70E033232B
:1006000069F0E32FF0E0ED59FD4F8081FB01EC54E0
:10061000FD4F808331503093B30207C0FB01EC548F
:10062000FD4F90839F5F9093B202FB01EC54FD4F0E
:10063000808190E09C01220F331F820F931F1A16B6
:100640001B0634F4141615061CF49A01AD0104C0FF
:1006500020E639E040E252E081599A4F0C942B1287
:1006600081E691E00C943C138F929F92AF92BF92DF
:10067000CF92DF92EF92FF920F931F93CF93DF936E
:100680001F92CDB7DEB7C82ED12C96012C553B4F0B
:100690004901F901E55BFF4F90819F3709F451C192
:1006A000963041F49091CB02992321F06630710588
:1006B00009F029C17B01182F0EEF080F0231F8F461
:1006C00064307105E1F0F601EC54FD4F80818C300F
:1006D000B0F490E0FC01EE0FFF1F8E0F9F1FFC0196
:1006E000E159FA4F808190E0FC01EE0FFF1F8E0F61
:1006F0009F1FFC01E65BFA4F808186FD0AC192EFE5
:10070000910F963068F461E070E082E0E816F10441
:1007100011F060E070E0892F99830E94FB009981BD
:10072000023118F5E12FE695E695E695812F877061
:10073000F0E0E253FD4FE114F10421F02BE0E2166A
:10074000F10449F421E030E001C0220F8A95EAF774
:100750008081282B09C021E030E001C0220F8A955A
:10076000EAF720958081282320835601AA0CBB1C20
:10077000F501ED5FFA4F118210823CE0E316F104BF
:1007800008F0B0C0F701EC5CFF4F0C94AD18963048
:1007900008F0D7C0023120F460E0812F0E94340BB2
:1007A000F401E55BFF4F80818F3709F4CAC082E016
:1007B00097C0023108F0C5C060E0812F0E94340B61
:1007C000F401E55BFF4F80818F3709F4BAC01082D6
:1007D000B8C0023108F0B5C062E0812F0E94340B2E
:1007E000F401E55BFF4F80818F3711F08BE0808350
:1007F000F501ED5FFA4F81E090E091838083A1C025
:10080000023108F09EC060E0812F0E94E80A61E09A
:10081000812F0E94340BF401E55BFF4F80818F37FD
:1008200009F48FC081E05CC0133049F08BEF810F79
:10083000823028F087EF810F833008F082C061E0BA
:10084000812F0E94340B61E0812F0E94340B60E005
:10085000812F0E94E80AF401E55BFF4F80818F370A
:1008600009F46FC083E03CC0023108F06AC0F401B3
:10087000E55BFF4F80818F3711F084E08083F601C4
:10088000EC54FD4F80818F3F09F447C090E0FC019C
:10089000EE0FFF1F8E0F9F1FFC01E159FA4F808161
:1008A00090E0FC01EE0FFF1F8E0F9F1FFC01E65B27
:1008B000FA4F808186FD45C030C01251123008F0D9
:1008C00040C0F401E55BFF4F80818F37D1F186E0B6
:1008D00007C0F401E55BFF4F80818F3791F18AE01B
:1008E00080832FC085E791E00F90DF91CF911F911A
:1008F0000F91FF90EF90DF90CF90BF90AF909F90BF
:100900008F900C943C131092CB029FEF90930001B8
:10091000D1CE812F0E94B300F2CE4FEF5FEF6FEF89
:100920007FEF812F0F90DF91CF911F910F91FF905B
:10093000EF90DF90CF90BF90AF909F908F900C94EE
:10094000F6020F90DF91CF911F910F91FF90EF90E2
:10095000DF90CF90BF90AF909F908F9008950F93AE
:100960001F93CF93DF9381E08093CC0283E995E0DE
:100970000E94A30E8091CB02882329F01092CB0213
:100980008FEF809300011092D1021092CE0210924C
:10099000C8021092D2021092CF021092C902109295
:1009A000D3021092D0021092CA0204EB12E0C0E00F
:1009B000DFEF82EF8C0F863018F462E070E006C043
:1009C0008EEF8C0F823128F461E070E08C2F0E9452
:1009D0003403F801D1938F01CF5FC43151F71092E6
:1009E0000303109202031092B3021092B20210920B
:1009F000CC02DF91CF911F910F9108951F920F921A
:100A00000FB60F9211242F933F934F935F936F93E1
:100A10007F938F939F93AF93BF93EF93FF938091B7
:100A2000CD0287FF05C010928500109284001BC084
:100A30002091CD02022E000C330B80916E0590E0C8
:100A40002817390784F48091CD02082E000C990BE9
:100A5000FC01EE0FFF1F8E0F9F1FFC01E65BFA4F9C
:100A6000808186FD15C08091CD028F5F8093CD027D
:100A70002091CD02022E000C330B80916E0590E088
:100A800028173907C4F48091CD028C3064F113C06B
:100A90008091CD02082E000C990BFC01EE0FFF1F78
:100AA0008E0F9F1FFC01E65BFA4F808160E08F7321
:100AB0000E94E80AD8CF8091840090918500049626
:100AC00080349C4918F480E49CE905C0809184003E
:100AD00090918500049690938900809388008FEF11
:100AE0008093CD023BC0209184003091850080919D
:100AF000CD02082E000C990BFC01EE0FFF1F8E0F8C
:100B00009F1FFC01E65BFA4F81819281820F931F48
:100B100090938900809388008091CD02082E000C6C
:100B2000990BFC01EE0FFF1F8E0F9F1FFC01E65B70
:100B3000FA4F808186FF12C08091CD02082E000CF2
:100B4000990BFC01EE0FFF1F8E0F9F1FFC01E65B50
:100B5000FA4F808161E08F730E94E80AFF91EF9164
:100B6000BF91AF919F918F917F916F915F914F91C5
:100B70003F912F910F900FBE0F901F9018950F93DC
:100B80001F93CF93082F10E0F801E253FD4F90819F
:100B9000C62FC92308531D4F411104C0D8019C9191
:100BA0009C1771F1682F8091A4049091A504DC0139
:100BB000ED91FC916F7060690190F081E02D0995D5
:100BC0008091A4049091A504DC01ED91FC916C2F1F
:100BD0006F770190F081E02D09958091A4049091A8
:100BE000A504DC01ED91FC916C2F70E0660F672F7E
:100BF000661F770B0190F081E02D0995F801C08305
:100C0000CF911F910F910895833020F5282F30E068
:100C1000F901EF52FD4F6083672BE1F0F901E253D8
:100C2000FD4F9081811103C069B16C7F0FC081308D
:100C300049F463B136B140E4349F900111246F73DD
:100C4000622B04C066B16C7366956695692341E0BA
:100C50000C94BF050895CF92DF92EF92FF920F930D
:100C60001F93CF93DF931F92CDB7DEB7082F6B0191
:100C7000142F6F3F8FEF780709F181E08093E30332
:100C8000009305041092E403109206048EE395E0AD
:100C900029830E940C0D2981822F0E944813E09124
:100CA000B002F091B102E230F10550F0EE0FFF1FFB
:100CB000EE0FFF1F35973197F1F702C0C12CD12CF1
:100CC0008091E2038111FCCF212F113208F020E244
:100CD00081E08093E2038093E1039FEF9093E00330
:100CE0001092DF03920F9093DE038093BD038091F7
:100CF000BD03902F990F892B8093BD038091BC0376
:100D0000813061F41092BC038091BD038093BB00DD
:100D10008091BC0083FDF8CF85EC01C085EE809307
:100D2000BC008091E2038130E1F38091DF03821700
:100D300010F42091DF03AEEBB3E04CE053E0FA0196
:100D40008E2F841B821718F48D918193F9CF109206
:100D50002D0320932C03E12EF12C30E0E216F30654
:100D60001CF486E891E005C02E153F0524F483EAC3
:100D700091E00E943C1300937002C0927102C12C5A
:100D8000D12CCE14DF0434F490912C0380912D03E8
:100D9000981310C062E0610F40E752E087E70F90C0
:100DA000DF91CF911F910F91FF90EF90DF90CF9047
:100DB0000C9403138EE395E00E94C00CF601E059F9
:100DC000FD4F82838FEFC81AD80ADBCFEF92FF92D4
:100DD0000F931F93CF93DF9390E0FC01E056F1094E
:100DE000EB31F10508F062C2EA01162FE05CFF4F1B
:100DF0000C94AD182981922F987125FF03C08FEBB9
:100E000091E05AC0888131E026FB222720F9232770
:100E1000983069F160F4911149C23093E3038093F3
:100E200005041092E4031092060402E007C090311A
:100E300009F43CC0983109F46DC038C2011778F448
:100E4000FE01E00FF11D8181608120E8829F601921
:100E500011248EE395E00E940C0D0E5FEFCF81E030
:100E60000E94481383E191E00197F1F71FC24A8184
:100E70006B81163069F430E8639FB0011124640F70
:100E8000711D9D814C81E0E89E9F4019112406C090
:100E9000F0E86F9F401911246FEF7FEFDF91CF9142
:100EA0001F910F91FF90EF900C942B06E0910001A1
:100EB000E73054F08FED91E0DF91CF911F910F91CA
:100EC000FF90EF900C943C139A814B81663069F44B
:100ED00030E8439FA0011124490F511D3D819C81A1
:100EE00060E8369F9019112406C0F0E84F9F9019D2
:100EF00011244FEF5FEFEF5FE093000135E0E30275
:100F0000F0011124E652FD4F808352834183938385
:100F10002483CCC120910001121614F08FEF44C03D
:100F200090E0622F022E000C770B35E0492F50E045
:100F30006417750774F0349FF001359FF00D11248C
:100F4000E652FD4F4081481302C085E026C09F5FF6
:100F5000EDCF90E0FACF9830F8F4FA0131968E9FF9
:100F6000D0018F9FB00D1124A652BD4F3C91849F9C
:100F7000F001859FF00D1124E652FD4F308311964C
:100F80004D915C9112975283418313963C91139734
:100F9000338314963C9134839F5F492F50E064174C
:100FA0007507CCF68FEF820F809300017FC12881F7
:100FB000898160E8869FC0011124820F911D0097EE
:100FC00021F09093B1028093B0028091CB02811105
:100FD0006DC1C0E08EEE8C0F823028F466E070E0C8
:100FE0008C2F0E943403CF5FC431A1F781E080933E
:100FF000CB0210922D0310922C031092E403109256
:1010000006041092E2038093E1031092BC0361E0B6
:1010100082E10E94E80A61E083E10E94E80A80918F
:10102000B9008E7F8093B9008091B9008D7F809345
:10103000B90088E48093B80085E48093BC0036C191
:10104000653008F433C11881F9800A81EB80CC81C6
:101050008EEF810F823108F029C1E12FF0E0EC54CE
:10106000FD4F20812C30B0F430E0F901EE0FFF1F6E
:101070002E0F3F1FF901E159FA4F208130E0F901AD
:10108000EE0FFF1F2E0F3F1FF901E65BFA4F808125
:1010900086FD08C180E8C89FA00111244E0D511D96
:1010A00090E8099FB00111246F0D711D812F0E94DE
:1010B000F60264E070E0812FDF91CF911F910F91D4
:1010C000FF90EF900C943403623008F4EFC0288155
:1010D0008981E0E88E9FC0011124820F911D009745
:1010E00011F481E090E09093020180930101DEC051
:1010F000623008F4DBC0698170E0123091F08A81BF
:10110000F0E88F9FC0011124682B792B133049F030
:101110008B8190E090E4899F902D88271124682B83
:10112000792B8881DF91CF911F910F91FF90EF90E4
:101130000C94CC0180EF0E94A5138CE60E94A513AD
:10114000CEEF84EF8C0F863038F482E00E94A51336
:101150008AE00E94A51309C0C13039F483E00E94DF
:10116000A51388E00E94A51308C08DEF8C0F823074
:10117000A8F389EF8C0F833088F3C23130F484E018
:101180000E94A5138EE00E94A51380EF8C0F823081
:1011900030F486E00E94A51381E00E94A5138FE73A
:1011A0000E94A513CF5FC23121F1C23150F680E019
:1011B0000E94A51381E00E94A5138BE00E94A51355
:1011C00081E00E94A51381E00E94A51381E00E94A6
:1011D000A513B7CF662309F469C0C88180EF0E94C8
:1011E000A5138EE60E94A5138C2F0E94A513C4316F
:1011F00048F087EFDF91CF911F910F91FF90EF9013
:101200000C94A513D0E0FE01E151FB4F80810E94B8
:10121000A513CC0FDD1F8E010D5F1A4FF8018081E1
:101220008F770E94A513F801808191819C0120781D
:10123000232B39F0880F892F881F990B8F770E94F5
:10124000A513CD5FDA4F888199819C012227307CDC
:10125000232B79F2990F880B990F982F881F8F777E
:101260000E94A513C6CF80EF0E94A5138AE60E94B4
:10127000A513C2EFC63010F48C2F01C08FE70E9477
:10128000A513CF5FC630B1F7B4CF9A01462F60E601
:1012900083E995E0DF91CF911F910F91FF90EF903F
:1012A0000C94C10E812F0E94B300F4CEDF91CF9138
:1012B0001F910F91FF90EF900895CF92DF92EF92E0
:1012C000FF920F931F93CF93DF936C017A018B01F1
:1012D000C0E0D0E0CE15DF0589F0D8016D918D0119
:1012E000D601ED91FC910190F081E02DC6010995A8
:1012F000892B11F47E0102C02196ECCFC701DF914A
:10130000CF911F910F91FF90EF90DF90CF900895B4
:10131000FC01918D828D981761F0828DDF01A80FFD
:10132000B11D5D968C91928D9F5F9F73928F90E01F
:1013300008958FEF9FEF0895FC01918D828D98178E
:1013400031F0828DE80FF11D858D90E008958FEFCB
:101350009FEF0895FC01918D228D892F90E0805C94
:101360009F4F821B91098F739927089587E094E01E
:101370000E94AA0921E0892B09F420E0822F089518
:10138000FC01848DDF01A80FB11DA35ABF4F2C9122
:10139000848D90E001968F739927848FA689B789F1
:1013A0002C93A089B1898C9180648C93938D848DCA
:1013B000981306C00288F389E02D80818F7D808399
:1013C0000895EF92FF920F931F93CF93DF93EC0159
:1013D00081E0888F9B8D8C8D981305C0E889F989F1
:1013E000808185FD24C0F62E0B8D10E00F5F1F4F0E
:1013F0000F731127E02E8C8DE8120CC00FB607FC7E
:10140000FACFE889F989808185FFF5CFCE010E9466
:10141000C009F1CF8B8DFE01E80FF11DE35AFF4F9C
:10142000F0820B8FEA89FB898081806207C0EE8998
:10143000FF896083E889F98980818064808381E005
:1014400090E0DF91CF911F910F91FF90EF90089561
:10145000CF93DF93EC01888D8823C9F0EA89FB895B
:10146000808185FD05C0A889B9898C9186FD0FC052
:101470000FB607FCF5CF808185FFF2CFA889B98927
:101480008C9185FFEDCFCE010E94C009E7CFDF919F
:10149000CF91089580E090E0892B29F00E94B60951
:1014A00081110C94000008950E94F4198F929F926C
:1014B000AF92BF92CF92DF92EF92FF926B017C01CD
:1014C0000E94A10D4B015C01C114D104E104F1049F
:1014D000F1F00E94A10DDC01CB0188199909AA093C
:1014E000BB09883E9340A105B10570F321E0C21A03
:1014F000D108E108F10888EE880E83E0981EA11C4F
:10150000B11CC114D104E104F10419F7DDCFFF903F
:10151000EF90DF90CF90BF90AF909F908F90089505
:101520001F920F920FB60F9211242F933F934F9358
:101530005F936F937F938F939F93AF93BF93EF933B
:10154000FF9387E094E00E94C009FF91EF91BF9163
:10155000AF919F918F917F916F915F914F913F914B
:101560002F910F900FBE0F901F9018951F920F9202
:101570000FB60F9211242F938F939F93EF93FF93A6
:10158000E0911704F09118048081E0911D04F0911E
:101590001E0482FD12C09081809120048F5F8F73A2
:1015A00020912104821751F0E0912004F0E0E95FDE
:1015B000FB4F958F8093200401C08081FF91EF91B4
:1015C0009F918F912F910F900FBE0F901F901895A4
:1015D00090E0FC01EE50FF4F3491FC01E252FF4FCE
:1015E0002491FC01E653FF4FE491EE2309F43BC044
:1015F000332339F1333091F038F43130A9F03230FF
:1016000001F584B58F7D12C0373091F03830A1F0EC
:101610003430B9F4809180008F7D03C080918000C8
:101620008F77809380000DC084B58F7784BD09C00B
:101630008091B0008F7703C08091B0008F7D809340
:10164000B000F0E0EE0FFF1FE054FF4FA591B49102
:101650008FB7F894EC91611103C020952E2301C03F
:101660002E2B2C938FBF0895CF93DF9390E0FC0136
:10167000E252FF4F2491FC01E653FF4F84918823EF
:1016800061F190E0880F991FFC01EA54FF4FC5916A
:10169000D491FC01E054FF4FA591B491611109C0B0
:1016A0009FB7F8948881209582238883EC912E231C
:1016B0000BC0623061F49FB7F8943881822F809517
:1016C00083238883EC912E2B2C939FBF06C08FB76A
:1016D000F894E8812E2B28838FBFDF91CF91089556
:1016E0008E3008F08E508770806480937C008091EB
:1016F0007A00806480937A0080917A0086FDFCCF26
:10170000809178002091790090E0922B08952091AB
:10171000D8023091D9022817390771F49091B60395
:101720008091B503981741F0E091B603F0E0EB58D3
:10173000FC4F808190E008958FEF9FEF089508950A
:101740001F93CF93DF93DC015C962D913C915D97C5
:101750002115310539F481E090E013969C938E9326
:1017600012973DC05196ED91FC91529750969C91E5
:101770005097892F80951FB75E964C915E9741FBDD
:10178000772770F941FD6095F8944081772311F037
:10179000492B01C048234083E9012197F1F748E034
:1017A000508160FF02C0592B01C058235083E901CA
:1017B0002197F1F76695415099F7772321F09081B1
:1017C0008923808303C08081982B90831FBF5C9600
:1017D0008D919C915D970197F1F721E030E0C9016F
:1017E000DF91CF911F9108952091D8023091D902B5
:1017F0002817390771F48091B5032091B60390E062
:10180000805C9F4F821B910960E470E00E949918F0
:10181000089580E090E008952091D8023091D90297
:1018200028173907B9F49091B6038091B50398173A
:1018300089F0E091B603F0E0EB58FC4F80812091F5
:10184000B60330E02F5F3F4F2F7333272093B6034B
:1018500090E008958FEF9FEF0895E091D802F09106
:10186000D902E817F90769F4A389B4899C9185899D
:10187000809589238C931092D9021092D80281E02E
:10188000089580E00895CF93DF93EC018A8D9B8DBE
:10189000892BF1F08091D8029091D9028C179D0785
:1018A000B9F0009711F00E942D0C8E8D8E7F8E8FD7
:1018B0001092B5031092B603D093D902C093D80208
:1018C000EB89FC8990818D89892B808381E001C01F
:1018D00080E0DF91CF91089508954A30510551F489
:1018E000E62FF0E0E151FB4F80818F3729F08AE04D
:1018F000808302C080E0089581E0089585ED8093A3
:10190000BC008091BC0084FDFCCF1092E2030895DE
:1019100040915003262F30E0240F311D2132310534
:10192000DCF42091E2032430C9F4FC0180E090E073
:10193000861758F4309150032191DC01A25DBC4F11
:10194000A30FB11D2C930196F3CF80915003680F24
:101950006093500380E0089581E0089582E0089547
:101960000895E0912D0380912C03E81730F4F0E006
:10197000E45FFC4F808190E008958FEF9FEF089522
:1019800090912D0380912C03981750F4E92FF0E0EB
:10199000E45FFC4F208130E09F5F90932D0302C0F5
:1019A0002FEF3FEFC901089580912C0390E0209123
:1019B0002D03821B91090895CF92DF92EF92FF923F
:1019C0000F931F93CF93DF937C01262F972F8A01CC
:1019D0008091E303882391F0C62FD72F6E01C40EA8
:1019E000D51ECC15DD0571F06991D701ED91FC9103
:1019F0000190F081E02DC7010995F3CF642F822F6C
:101A00000E94880CC801DF91CF911F910F91FF9028
:101A1000EF90DF90CF900895CF93DF931F92CDB7D3
:101A2000DEB769832091E3032223D1F020910604DD
:101A3000203240F021E030E0FC013383228380E05B
:101A400090E015C08091E403E82FF0E0EB51FC4FEB
:101A5000998190838F5F8093E4038093060405C08F
:101A600061E0CE0101960E94880C81E090E00F9029
:101A7000DF91CF9108950F931F93CF93DF93EC01E4
:101A8000162F042F1B821A8288EE93E0A0E0B0E0AC
:101A90008C839D83AE83BF8381E191E099838883AA
:101AA0001F8A1E8A198E188E1B8E1A8E1D8E1C8EF2
:101AB0006E8D6E7F20FB61F96E8F6695617081E09F
:101AC0006827842F0E94E80A61E0802F0E94340B6F
:101AD000402F50E0FA01E252FF4FE491E88BFA0107
:101AE000E653FF4FE491F0E0EE0FFF1FE054FF4F8D
:101AF000859194919A8B898B60E0812F0E94340BA1
:101B00008E8D81FD04C061E0812F0E94E80A1C8750
:101B1000612F70E0FB01E252FF4FE491ED87FB0182
:101B2000E653FF4FE491F0E0EE0FFF1FEA5FFE4F38
:101B3000859194919F878E87DF91CF911F910F910F
:101B400008953FB7F8948091B8039091B903A0919C
:101B5000BA03B091BB0326B5A89B05C02F3F19F06F
:101B60000196A11DB11D3FBFBA2FA92F982F88271D
:101B7000820F911DA11DB11DBC01CD0142E0660F78
:101B8000771F881F991F4A95D1F708951F920F92CA
:101B90000FB60F9211242F933F938F939F93AF9380
:101BA000BF938091D4029091D502A091D602B091BA
:101BB000D7023091B70323E0230F2D3720F401968D
:101BC000A11DB11D05C026E8230F0296A11DB11D60
:101BD0002093B7038093D4029093D502A093D602AA
:101BE000B093D7028091B8039091B903A091BA0342
:101BF000B091BB030196A11DB11D8093B8039093D2
:101C0000B903A093BA03B093BB03BF91AF919F9167
:101C10008F913F912F910F900FBE0F901F901895AD
:101C20001F920F920FB60F9211242F933F934F9351
:101C30005F936F937F938F939F93AF93BF93EF9334
:101C4000FF93E091D802F091D902309709F451C086
:101C5000968DA685B785858591FF04C09C918923C3
:101C600029F447C09C91892309F043C0A389B48912
:101C70009C918589809589238C9386899789019782
:101C8000F1F7608D718DA685B785558538E020E028
:101C9000CB010197F1F7822F90E095958795282F3A
:101CA0004C91452309F02068315091F7868D81FDD4
:101CB00020958091B50390E001968F73992730911C
:101CC000B603381749F0A091B503B0E0AB58BC4F4C
:101CD0002C938093B50303C0868D8160868F828D9F
:101CE000938D0197F1F7A389B4899C918589892BFC
:101CF0008C93FF91EF91BF91AF919F918F917F91C5
:101D00006F915F914F913F912F910F900FBE0F9068
:101D10001F901895FC01693069F028F4683081F44F
:101D200083A194A108956A3041F06B3049F481A5F4
:101D300092A5089585A196A1089587A190A50895DB
:101D400080E090E008951F93CF93DF93EC0118E0BB
:101D5000612FCE010E948A0E009711F00E945C193B
:101D60001F5F1C30A9F78FEF8AA3FE013A96A29657
:101D700011921192EC17FD07D9F7DF91CF911F91C6
:101D800008958F929F92AF92BF92CF92DF92EF927F
:101D9000FF920F931F93CF93DF93EC01042F7901F0
:101DA000603609F0FFC1D9018C91182F1F70807F18
:101DB000803309F459C130F4803171F0803209F474
:101DC00030C1F2C1803609F4D4C1803709F4DFC1D3
:101DD000803509F0E9C1A0C1F9018280912CA12CC4
:101DE000B12CA7E0880C991CAA1CBB1CAA95D1F7A2
:101DF000838190E0A0E0B0E02EE0880F991FAA1F39
:101E0000BB1F2A95D1F7882A992AAA2ABB2A818141
:101E1000882A183060F4612FCE010E948A0E009744
:101E200009F4C2C1B501A4010E941A14BDC1453014
:101E300068F00481F580193001F118F4183059F078
:101E40004EC01A3059F11B30D1F149C085E492E0FF
:101E50000E943C13A7C18BA19CA1892B09F03FC014
:101E60008FE190E00E94C7186C0120E04F2D602F99
:101E70000E943B0DDCA2CBA232C08DA19EA1892B7A
:101E800071F58FE190E00E94C7186C0120E04F2DA2
:101E9000602F0E943B0DDEA2CDA221C08FA198A58C
:101EA000892BE9F48FE190E00E94C7186C0120E0D3
:101EB0004F2D602F0E943B0DD8A6CFA210C089A540
:101EC0009AA5892B61F48FE190E00E94C7186C01FC
:101ED00020E04F2D602F0E943B0DDAA6C9A6612F8E
:101EE000CE010E948A0EEC01892B09F45DC1E02F1E
:101EF000F0E0E151FB4F80818F3711F08AE0808361
:101F0000EF2DF0E0E151FB4F80818F3711F08AE037
:101F100080831B8E1A8E198E188E1F8A1E8A60E08F
:101F200079E08DE390E0A50194010E94081AF9017F
:101F30002430310518F0C901039702C081E090E018
:101F40009D8F8C8F6C85663108F069C0C9019695AC
:101F500087958431910510F0439702C081E090E0AD
:101F60009F8B8E8B369718F0C901059702C081E0D0
:101F700090E0998F888FC901880F991F280F391F0A
:101F800036952795369527952D30310518F02C502C
:101F9000310902C021E030E03B8F2A8F9091680028
:101FA000683050F021E06E3008F420E081E001C09C
:101FB000880F2A95EAF701C084E0892B8093680096
:101FC0008C85883038F08E3040F0863148F020E043
:101FD00030E008C02DE630E005C02BE630E002C05E
:101FE0002CE630E03C8B2B8B883030F491E001C044
:101FF000990F8A95EAF70EC0282F30E08E3018F43A
:102000002850310902C02E50310991E001C0990FCA
:102010002A95EAF79D8B8C8D9D8D0197F1F7CE0166
:10202000BEC0612FCE010E948A0E5C01892B09F48B
:10203000BBC01E2DCE2DDF2D22969C2F9150911BC3
:10204000901708F0B1C0D501ED91FC918881DE01B7
:1020500011976C91B0E88B9F601911240190F08169
:10206000E02DC5010995E8CFF9018181811127C0D3
:102070002AA127300CF098C0812F90E0FC01359602
:10208000EE0FFF1FEC0FFD1F433070F0D7011396CA
:102090008C91B0E88B9FC0011124D70112963C911E
:1020A000832B9183808302C01182108281E0820F92
:1020B0008AA3C80FD11D87FDDA951A8375C08130B8
:1020C00009F072C09AA119161CF08FEF8AA36CC098
:1020D00080E0492F092E000C550B282F30E04217C5
:1020E000530744F0FE01E20FF31F2281211761F034
:1020F0008F5FF3CF80E008C0883028F4FE01E20F44
:10210000F31F238122838F5F282F30E0421753076C
:102110009CF791509AA348C0612FCE010E948A0E6D
:10212000EC01009709F440C01830E8F4E881F98127
:102130000284F385E02D0995EA89FB8980818F7EF1
:102140008083EA89FB898081877F8083EA89FB8994
:1021500080818F778083EA89FB8980818F7D80836E
:102160008A8D898F21C00E942D0CCE010E945C199E
:102170001BC0612FCE010E948A0E0097A9F0DC01DE
:10218000ED91FC910284F385E02D09950DC0183086
:1021900058F0612FCE010E948A0E009729F00E940C
:1021A000430C02C080E001C081E0DF91CF911F911C
:1021B0000F91FF90EF90DF90CF90BF90AF909F90E6
:1021C0008F900895FC01158216821782DC01189603
:1021D000885B9F4F1D92A817B907E1F71C92DF019A
:1021E000A75BBF4F1D921C92ED56FF4F0190F081EF
:1021F000E02D309709F0099408951F920F920FB6C1
:102200000F9211242F933F934F935F936F937F937C
:102210008F939F93AF93BF93EF93FF938091B900F8
:10222000887F803609F49CC068F5883209F45BC069
:1022300090F4803109F454C038F4882309F4F6C0CE
:10224000883009F44DC0F6C0883109F44CC08032A2
:1022500009F45DC0EFC0803409F468C048F48033ED
:1022600009F455C0883309F0E5C08093E003D8C075
:10227000803509F44FC0883509F45DC0883409F011
:10228000D9C0D6C0883909F4C7C0A8F4883709F482
:1022900067C038F4883609F463C0803709F460C039
:1022A000C9C0883809F4B8C0803909F45FC08038E3
:1022B00009F0C0C05BC0803B09F486C038F4803AA6
:1022C00009F466C0883A09F47FC0B4C0803C09F4C0
:1022D000A7C0883C09F4A4C0883B09F48AC0AAC0FE
:1022E0008091BD0310C09091DF038091DE039817A9
:1022F00070F5E091DF0381E08E0F8093DF03F0E063
:10230000E254FC4F80818093BB0085EC86C08093B3
:10231000E0038EC0E091DF0381E08E0F8093DF0346
:102320008091BB00F0E0E254FC4F80839091DF038A
:102330008091DE036EC0E091DF0381E08E0F809319
:10234000DF038091BB00F0E0E254FC4F808380917A
:10235000E10381116DC081E08093BC0384EA61C018
:1023600083E08093E20310927403CFCF80917403D3
:10237000803208F051C0E091740381E08E0F8093A9
:1023800074038091BB00F0E0EC5AFC4F8083BDCF1A
:1023900085EC8093BC001092E2038091740380323C
:1023A00030F4E0917403F0E0EC5AFC4F108260913D
:1023B000740370E0E0915203F091530384E593E0DD
:1023C00009951092740336C084E08093E203109262
:1023D000510310925003E0914E03F0914F03099581
:1023E00080915003811105C081E0809350031092C9
:1023F0002E03E091510381E08E0F80935103F0E0B2
:10240000E25DFC4F80818093BB00909151038091ED
:102410005003981708F479CF85E88093BC000AC070
:1024200085EC8093BC001092E20304C01092E0039C
:102430000E947E0CFF91EF91BF91AF919F918F9180
:102440007F916F915F914F913F912F910F900FBEB0
:102450000F901F901895DF92EF92FF920F931F93AA
:10246000CF93DF93EC01D62E7A01890188818C30DD
:1024700008F06AC061E08D2D0E94340B8881E82F3E
:10248000F0E09F01220F331FE20FF31FE65BFA4FCC
:102490009D2D9F732081207CD22ED92AD08260E28C
:1024A00072E0AB014E195F0957FF02C04D5F5F4FED
:1024B0005595479555954795498340E659E09A01CA
:1024C000201B310B37FF02C02D5F3F4F35952795FD
:1024D000359527952A836CE00E948D189CE0899F92
:1024E000B001112440E050E09A01260F371FF90196
:1024F000EE0FFF1F2E0F3F1FF901E65BFA4F908191
:1025000096FD16C04F5F5F4F4C30510569F7811142
:102510000FC01092800082E08093810010928500AD
:1025200010928400B19A80916F00826080936F0056
:10253000E881F0E0CF01880F991FE80FF91FE65BF3
:10254000FA4F8081806480838881DF91CF911F91D1
:102550000F91FF90EF90DF9008950F931F93CF930B
:10256000DF93EC0104EA14E0D8018D919C91DC0129
:10257000ED91FC916C2F6F770190F081E02D099522
:10258000F80180819181DC01ED91FC91CC0FCD2F80
:10259000CC1FDD0B6C2F6F770190F081E02DDF9168
:1025A000CF911F910F9109948091A4049091A5045B
:1025B000DC01ED91FC910190F081E02D67EF099431
:1025C0008091A4049091A504DC01ED91FC9101900F
:1025D000F081E02D60EF0994CF93DF93EB01A091A0
:1025E000A404B091A504ED91FC9111978F70682F10
:1025F000606E0190F081E02DCD010995CE01DF9153
:10260000CF910C94AD12EF92FF920F931F93CF9343
:10261000DF9300D01F92CDB7DEB7162F4A835B83BE
:1026200089830E94E012A091A404B091A504ED91C9
:10263000FC9111970190F081E02D8981682FCD01E7
:1026400009954A81042FE42E5B81F52E8E2D801B87
:10265000811738F4F70181917F0190E00E94AD125B
:10266000F5CF0F900F900F90DF91CF911F910F91A9
:10267000FF90EF900C94D412FC0101900020E9F738
:102680003197BF01681B790BAC0181E70C940313F0
:10269000382F2091060490910504213208F049C09A
:1026A0008091E2038111FCCF42E04093E20330933A
:1026B000E1033FEF3093E0031092DF032093DE034A
:1026C000A5EEB3E04EEB53E0FA013E2F341B321778
:1026D00018F43D913193F9CF1092BD032091BD03C1
:1026E000990F922B9093BD039091BC03913061F4AC
:1026F0001092BC039091BD039093BB009091BC00DD
:1027000093FDF8CF95EC01C095EE9093BC009091AD
:10271000E2039230E1F39091E0039F3F79F08091E2
:10272000E003803241F08091E003803331F084E0B7
:1027300005C081E003C082E001C083E01092E403A1
:10274000109206041092E3030895A091A404B0919E
:10275000A504ED91FC9111970190F081E02D682F77
:10276000CD010994CF93DF93C4EAD4E088819981A5
:10277000DC01ED91FC910190F081E02D69EF09956C
:1027800088819981DC01ED91FC910190F081E02D2F
:1027900062E0099588819981DC01ED91FC910190BD
:1027A000F081E02D65E0DF91CF910994CF930E94F5
:1027B000E0128091A4049091A504DC01ED91FC91BC
:1027C0000190F081E02D69E709958091A404909132
:1027D000A504DC01ED91FC91A091A704B091A8049F
:1027E0000190F081E02D6C9109958091A404909165
:1027F000A504DC01ED91FC91A091A704B091A8047F
:102800000190F081E02D11966C910995C2E08091C4
:10281000A604C81760F4E091A704F091A804EC0F97
:10282000F11D808190E00E94AD12CF5FF0CFCF917B
:102830000C94D412CF92DF92EF92FF920F931F93DA
:10284000CF93DF93EC016A017B01E889F98982E08B
:1028500080834115514E61057105B1F060E079E06A
:102860008DE390E0A70196010E943A1A89019A012E
:1028700001501109210931093695279517950795BA
:10288000980101151041A8F0E889F989108260E8E3
:1028900074E88EE190E0A70196010E943A1ADA01ED
:1028A000C9010197A109B109B695A7959795879593
:1028B0009C01EC85FD853083EE85FF852083188E95
:1028C000EC89FD8986E08083EA89FB8980818061CB
:1028D0008083EA89FB89808188608083EA89FB891B
:1028E000808180688083EA89FB8980818F7D8083F5
:1028F000DF91CF911F910F91FF90EF90DF90CF90DC
:102900000895789484B5826084BD84B5816084BD67
:1029100085B5826085BD85B5816085BD80916E007D
:10292000816080936E0010928100809181008260AE
:1029300080938100809181008160809381008091EB
:1029400080008160809380008091B10084608093DA
:10295000B1008091B00081608093B00080917A00D6
:10296000846080937A0080917A00826080937A00FC
:1029700080917A00816080937A0080917A008068EB
:1029800080937A001092C1008CE18093A60480911C
:10299000A7049091A8040E945C19C091A604D0E0FD
:1029A000CE0101960E94C7189093A8048093A704B3
:1029B000FC01EC0FFD1F108222E0DC012C9325E0CE
:1029C00011962C93AE01425051096AE272E00296D0
:1029D0000E94F9198CEC91E090932C0580932B05C3
:1029E00080E391E090932E0580932D058BEF90E08E
:1029F0009093300580932F0584E096E09093320504
:102A00008093310584E393E09093340580933305FC
:102A100086EE90E0909336058093350586EE96E03D
:102A200090933C0580933B058FEA94E090933805A2
:102A30008093370581E080933D0540E051EE60E0F2
:102A400070E087E094E00E941A1487E094E090938D
:102A5000A5048093A40480913D05811150C061E0DC
:102A60008DE00E94340B62ED70E080E090E00E9407
:102A7000560A61E08DE00E94E80A68E270E080E0BA
:102A800090E00E94560A60E08DE00E94E80A62ED44
:102A900070E080E090E00E94560A61E08DE00E94C4
:102AA000E80A68E270E080E090E00E94560A60E088
:102AB0008DE00E94E80A6AEF70E080E090E00E94FA
:102AC000560AC0E062ED70E080E090E00E94560A95
:102AD00061E08DE00E94E80A68E270E080E090E04A
:102AE0000E94560A60E08DE00E94E80ACF5FC53080
:102AF00049F76DE770E080E090E00E94560A0E947E
:102B0000B2138091A60481110E94D6130E94AF04D3
:102B100011E002E035E0F32E8091D102882349F0E4
:102B200069B18091CE0268236C7F40E080E00E9412
:102B3000BF058091D202882379F063B196B1B0E4E9
:102B40009B9FC00111246F73862B6091CF02682375
:102B500040E081E00E94BF058091D3028823D9F034
:102B600066B16C73669566958091D002682340E0EB
:102B700082E00E94BF050FC08091A4049091A5043B
:102B8000DC01ED91FC910680F781E02D09958F3FE6
:102B9000BFEF9B0771F48091A4049091A504DC0120
:102BA000ED91FC910480F581E02D0995892B21F7A9
:102BB0001DC1382F2091EC04222309F466C0873F01
:102BC00009F054C01092EC048091AC04813751F0AC
:102BD000893709F03DC08091A6048823E1F20E9464
:102BE000D613D9CFE0913905F0913A05309799F293
:102BF0002091ED043091EE04C901019797FDC901C0
:102C000095958795682FACEAB4E040E050E030E05D
:102C10004E5F5F4F361768F4EA01CC55DB4F2F81CA
:102C20002C937885C0E87C9F201911242D933F5F59
:102C3000EFCF9927DC01AC55BB4F17968C911797B6
:102C4000882311F018961C928CEA94E00995A3CF82
:102C5000E0913B05F0913C05309709F49CCF6091E1
:102C6000ED0461504DEA54E0099595CF2091ED04B3
:102C70003091EE04F901EC55FB4F80872F5F3F4FF9
:102C80003093EE042093ED0486CF2091A9042223F3
:102C900009F469C087FD67C09FEF920F9093A90464
:102CA000E92FF0E0EC55FB4F8087911174CF8091B4
:102CB000AA04882309F46FCF803D09F445C050F47D
:102CC000803901F1803C09F04BC0E0912F05F09173
:102CD00030053EC0843F39F1853F51F1803E09F017
:102CE0003FC0E0912B05F0912C053097C9F1809100
:102CF000AC046091AD0470E020E8829F600D711D0E
:102D000011242BC0E0912D05F0912E05309741F153
:102D10008091AC046091AD0470E090E8899F600DF3
:102D2000711D11241AC0E0913305F091340504C0DF
:102D3000E0913505F0913605309791F06091AC0443
:102D400070E08091AD040BC0E0913105F091320547
:102D5000309731F06091AC0470E08091AB0409953C
:102D60001092AA0418CF303F38F4282F207F30E08B
:102D70008F708093AB0402C09C013327203F310544
:102D800059F17CF4203C310511F124F4203931054E
:102D9000D9F001CF203D3105D1F0203E3105A1F021
:102DA000FACE293F3105F9F034F4C901845F910965
:102DB000029750F0F0CE2F3F310509F0ECCE84EAB7
:102DC00094E00E94E210E7CE0093A90402C01093A1
:102DD000A9042093AA04DFCE1093EC041092EE0411
:102DE0001092ED04D8CE0E94B213D5CE8FB7F894CE
:102DF0008090D4029090D502A090D602B090D702D5
:102E00008FBF8092080390920903A0920A03B092A8
:102E10000B038091040390910503A0910603B091E8
:102E20000703409101015091020160E070E0881AAF
:102E3000990AAA0ABB0A481559056A057B0530F0AC
:102E40008091B50587FD7DC0B12C65C0840F951FAD
:102E5000A61FB71F8093040390930503A093060356
:102E6000B09307039FEEC92E94E0D92EC2EFC6306F
:102E7000B8F4F6018081823099F480910203909138
:102E800003030C2E02C0959587950A94E2F780FF04
:102E900007C08C2F0E94700BBC018C2F0E94EC127B
:102EA000CF5FFFEFCF1ADF0AC63009F7809100012C
:102EB00087FDC6CFC0E02C2F30E080910001082EA6
:102EC000000C990B821793070CF4BACFF29EF00115
:102ED000F39EF00D1124E652FD4F61817281248131
:102EE000438180810E942B06CF5FE5CFFC01ED5628
:102EF000FA4FE280EE2DF0E0EE0FFF1FE356FA4F9F
:102F0000C080D1806E2D83E995E00E948A0EEC018D
:102F1000892B61F4B3948B2D90E02091B505022E9E
:102F2000000C330B281739070CF70BC027E02E15C0
:102F300058F48091D8029091D902C817D90751F757
:102F400003C00E944A0AE8CDE881F9810480F58136
:102F5000E02DCE01099518161906E4F680EF0E94BF
:102F6000A51380E60E94A5138E2D80640E94A513F0
:102F7000C114D10451F0E881F9810480F581E02D7C
:102F8000CE010995C816D90644F0E881F98104807C
:102F9000F581E02DCE0109956C011C141D04ACF4E3
:102FA000E881F9810680F781E02DCE010995E82EB0
:102FB0008F770E94A5138E2D881F8827881F0E9457
:102FC000A51381E0C81AD108E8CF87EF0E94A513A6
:102FD000A1CFCF92DF92EF92FF9210920A0410924B
:102FE000090478EEC72E73E0D72EE12CF12CC092A5
:102FF0000B04D0920C04E0920D04F0920E0481E2D6
:1030000091E0909308048093070485EC90E09093FE
:1030100014048093130484EC90E09093160480933E
:10302000150480EC90E0909318048093170481ECD1
:1030300090E090931A048093190482EC90E09093AE
:103040001C0480931B0486EC90E090931E048093F4
:103050001D04109220041092210410922204109258
:10306000230410923D051092A6041092A804109219
:10307000A70484EA94E00E94E210109241051092A5
:103080004005C0924205D0924305E0924405F0927B
:10309000450581E391E090933F0580933E0589E5E6
:1030A00091E090939405809393051092B705109248
:1030B000B6051092B9051092B8051092BB05109292
:1030C000BA051092BD051092BC058FEF8093B5052F
:1030D00080916E05AFE6B5E09FEF48EB5BE08C308A
:1030E00078F48C93282F30E0F901EE0FFF1F2E0F9C
:1030F0003F1FF901E65BFA4F528341838F5F01C0A6
:103100009C93139625E0A339B20749F780936E0587
:10311000FF90EF90DF90CF900895991B79E004C065
:10312000991F961708F0961B881F7A95C9F7809506
:10313000089597FB072E16F4009407D077FD09D069
:103140000E94B31807FC05D03EF4909581959F4FDF
:103150000895709561957F4F0895EE0FFF1F0590BC
:10316000F491E02D0994AA1BBB1B51E107C0AA1FD3
:10317000BB1FA617B70710F0A61BB70B881F991F18
:103180005A95A9F780959095BC01CD010895CF93EC
:10319000DF938230910510F482E090E0E091C00569
:1031A000F091C10520E030E0C0E0D0E0309711F1AF
:1031B0004081518148175907C0F04817590761F4F9
:1031C00082819381209719F09B838A832BC09093EF
:1031D000C1058093C00526C02115310519F042179D
:1031E000530718F49A01BE01DF01EF010280F38159
:1031F000E02DDCCF2115310509F1281B390B2430D6
:10320000310590F412968D919C911397611571057B
:1032100021F0FB019383828304C09093C1058093C6
:10322000C005FD01329644C0FD01E20FF31F8193FA
:103230009193225031092D933C933AC02091BE05C1
:103240003091BF05232B41F42091050130910601F7
:103250003093BF052093BE052091030130910401F6
:103260002115310541F42DB73EB74091070150912A
:103270000801241B350BE091BE05F091BF05E21754
:10328000F307A0F42E1B3F0B2817390778F0AC0189
:103290004E5F5F4F2417350748F04E0F5F1F509366
:1032A000BF054093BE058193919302C0E0E0F0E03A
:1032B000CF01DF91CF9108950F931F93CF93DF93A9
:1032C000009709F48CC0FC0132971382128200919E
:1032D000C0051091C1050115110581F420813181CE
:1032E000820F931F2091BE053091BF052817390723
:1032F00079F5F093BF05E093BE0571C0D80140E0B9
:1033000050E0AE17BF0750F412962D913C911397E1
:10331000AD012115310509F1D901F3CF9D01DA0184
:103320003383228360817181860F971F82179307F1
:1033300069F4EC0128813981260F371F2E5F3F4F3A
:10334000318320838A819B8193838283452B29F457
:10335000F093C105E093C00542C01396FC93EE9331
:103360001297ED01499159919E01240F351FE217E3
:10337000F30771F480819181840F951F0296119655
:103380009C938E938281938113969C938E93129734
:10339000E0E0F0E0D80112968D919C911397009790
:1033A00019F0F8018C01F6CF8D919C9198012E5F58
:1033B0003F4F820F931F2091BE053091BF05281704
:1033C000390769F4309729F41092C1051092C005AD
:1033D00002C0138212821093BF050093BE05DF91D5
:1033E000CF911F910F91089581E090E0F8940C9493
:1033F0006B1AFB01DC014150504048F001900D92E6
:103400000020C9F701C01D9241505040E0F70895D7
:10341000052E97FB1EF400940E941F1A57FD07D03B
:103420000E943A1A07FC03D04EF40C941F1A5095D0
:103430004095309521953F4F4F4F5F4F08959095A0
:103440008095709561957F4F8F4F9F4F08950E9493
:103450005C1AA59F900DB49F900DA49F800D911DA7
:1034600011240895B7FF0C94271A0E94271A821B73
:10347000930B0895A1E21A2EAA1BBB1BFD010DC0E0
:10348000AA1FBB1FEE1FFF1FA217B307E407F50714
:1034900020F0A21BB30BE40BF50B661F771F881FF0
:1034A000991F1A9469F760957095809590959B0186
:1034B000AC01BD01CF010895A29FB001B39FC0012F
:1034C000A39F700D811D1124911DB29F700D811D50
:0A34D0001124911D0895F894FFCF18
:1034DA00FF13000000C20580000100000000000088
:1034EA0000A00B5D09F40B0C0C870B9F0B0000006E
:1034FA0000E1095D09AA0988099C09280A00000057
:10350A00000C0DDC0CD40CC00CB10CB00C0000008B
:10351A0000540A5D09540A540A540A540A00000065
:10352A0000540A5D09000000006C0C6D0CC10EA36A
:10353A000E4D617820736572766F732061747461C1
:10354A006368656400556E6B6E6F776E2070696E86
:10355A00206D6F6465004932433A20546F6F206DC5
:10356A00616E792062797465732072656365697624
:10357A006564004932433A20546F6F2066657720AC
:10358A006279746573207265636569766564003172
:10359A00302D6269742061646472657373696E6741
:1035AA00206E6F7420737570706F72746564007426
:1035BA006F6F206D616E7920717565726965730030
:1035CA00443A5C55736572735C73353531353434FE
:1035DA005C446F63756D656E74735C417264756982
:1035EA006E6F5C6D795F5374616E64617264466973
:1035FA00726D617461506C75735C6D795F5374613F
:10360A006E646172644669726D617461506C75733F
:10361A002E696E6F005370656369667920736572EF
:10362A0069616C20525820616E6420545820706978
:04363A006E730000AB
:107E0000112484B714BE81FFF0D085E080938100F7
:107E100082E08093C00088E18093C10086E0809377
:107E2000C20080E18093C4008EE0C9D0259A86E02C
:107E300020E33CEF91E0309385002093840096BBD3
:107E4000B09BFECF1D9AA8958150A9F7CC24DD24C4
:107E500088248394B5E0AB2EA1E19A2EF3E0BF2EE7
:107E6000A2D0813461F49FD0082FAFD0023811F036
:107E7000013811F484E001C083E08DD089C08234E0
:107E800011F484E103C0853419F485E0A6D080C0E4
:107E9000853579F488D0E82EFF2485D0082F10E0AE
:107EA000102F00270E291F29000F111F8ED06801E7
:107EB0006FC0863521F484E090D080E0DECF843638
:107EC00009F040C070D06FD0082F6DD080E0C81688
:107ED00080E7D80618F4F601B7BEE895C0E0D1E017
:107EE00062D089930C17E1F7F0E0CF16F0E7DF06D8
:107EF00018F0F601B7BEE89568D007B600FCFDCFD4
:107F0000A601A0E0B1E02C9130E011968C91119780
:107F100090E0982F8827822B932B1296FA010C0160
:107F200087BEE89511244E5F5F4FF1E0A038BF0790
:107F300051F7F601A7BEE89507B600FCFDCF97BE46
:107F4000E89526C08437B1F42ED02DD0F82E2BD052
:107F50003CD0F601EF2C8F010F5F1F4F84911BD097
:107F6000EA94F801C1F70894C11CD11CFA94CF0C13
:107F7000D11C0EC0853739F428D08EE10CD085E9AC
:107F80000AD08FE07ACF813511F488E018D01DD067
:107F900080E101D065CF982F8091C00085FFFCCF94
:107FA0009093C60008958091C00087FFFCCF809118
:107FB000C00084FD01C0A8958091C6000895E0E648
:107FC000F0E098E1908380830895EDDF803219F02E
:107FD00088E0F5DFFFCF84E1DECF1F93182FE3DFCA
:107FE0001150E9F7F2DF1F91089580E0E8DFEE27F6
:047FF000FF270994CA
:027FFE00040479
:0400000300007E007B
:00000001FF
